:1000000039C000009AC2000098C2000096C20000E9
:1000100094C2000092C2000090C200008EC2000094
:100020008CC200008AC2000088C2000086C20000A4
:1000300084C2000082C20000A1C200007EC2000093
:100040007CC200007AC2000078C2000076C20000C4
:1000500074C2000072C2000070C200006EC20000D4
:100060006CC200006AC200000100010100059A0193
:100070000101038011241FBECFEFD8E0DEBFCDBF4A
:10008000E8E6F0E040E017C0B591A59135912591E3
:10009000059107FD0CC095918591EF01F92FE82F8F
:1000A00005900D92A217B307D9F7FE0104C01D9267
:1000B000A217B307E1F7E437F40731F703D000C024
:0400C000F894FFCFE2
:1000C40078944FD184B5826084BD8CE987BD8091DA
:1000D4006E00826080936E0085B5856085BD12D008
:1000E40061E081E085D0809102018130E1F71092D6
:1000F400020180E090E08DD08823A9F38091000074
:04010400A8D0F1CFBF
:10010800CF92DF92EF92CF932FEF86E791E02150C5
:1001180080409040E1F700C0000085B1897F85B933
:1001280088B1897F88B91BB884B1866084B987B1E2
:10013800866087B98AB183608AB985B1897F85B9B4
:1001480088B1866088B9589A8FE99FE00197F1F7DE
:1001580000C0000058988FE99FE00197F1F700C0B0
:10016800000085B1897F85B988B1866088B9589AB9
:100178008FE99FE00197F1F700C0000058988FE9D8
:100188009FE00197F1F700C0000085B1897F85B92C
:1001980088B1897F846088B9589A8FE99FE0019770
:1001A800F1F700C0000058988FE99FE00197F1F738
:1001B80000C0000088E2F3D08CE0F1D08CE3C82EB8
:1001C80085E0D82E80E0E82E40E0C1E0C40F8E2DF7
:1001D800B60171D198E0C90ED11CE11C4C2FC83072
:0C01E800A1F7CF91EF90DF90CF90089529
:1001F400623061F0633039F0613011F08068D1C051
:10020400805C8068CEC08C5A8068CBC08C5E80686D
:02021400C8C060
:10021600CF93DF93EC0172D18F3FA9F0909101014A
:10022600891731F08093010180E0DF91CF91089525
:10023600909100018917B1F388838093000181E0D2
:10024600DF91CF9108958093010180930001ECCF57
:1002560045B1282F207430E0B901759567957595DD
:1002660067957595679575956795982F9078292F59
:1002760030E0022E232F000C221F330B000C221F0E
:10028600331F262B942F997F292B25B948B1282F68
:10029600207130E0B90175956795759567957595E7
:1002A6006795982F9072292F30E0359527953595CB
:1002B600279535952795262B942F997F292B28B995
:1002C600599A589A25ED2A95F1F7000058985998A9
:1002D60095ED9A95F1F7000035B120E1829FC001B6
:1002E6001124BC0160747727759567957595679598
:1002F6007595679575956795AC0140785527042ED9
:10030600452F000C441F550B000C441F551F262F6C
:10031600242B397F232B25B928B1AC0140715527F1
:1003260055954795559547955595479580729927C3
:10033600959587959595879595958795842B922F75
:10034600997F892B88B9599A589A85ED8A95F1F73C
:1003560000005898599895ED9A95F1F70000089580
:10036600259A87B1806387B92D9888B18F7C88B923
:1003760087B1866087B984B1866084B98AB18360A3
:100386008AB984B1896184B9579A85B1896185B979
:100396005F9A8AB1837C8AB98BB18C638BB90895D5
:1003A60045B1282F207430E0B9017595679575958C
:1003B60067957595679575956795982F9078292F08
:1003C60030E0022E232F000C221F330B000C221FBD
:1003D600331F262B942F997F292B25B948B1282F17
:1003E600207130E0B9017595679575956795759596
:1003F6006795982F9072292F30E03595279535957A
:10040600279535952795262B942F997F292B28B943
:10041600589AEFE9FFE03197F1F700C000005898CD
:10042600EFE9FFE03197F1F700C0000035B1F0E1E8
:100436008F9FC0011124BC0160747727759567955D
:10044600759567957595679575956795AC0140782F
:100456005527042E452F000C441F550B000C441F36
:10046600551F262F242B397F232B25B928B1AC0104
:1004760040715527559547955595479555954795F7
:1004860080729927959587959595879595958795E2
:10049600842B922F997F892B88B9589A8FE99FE0F0
:1004A6000197F1F700C000005898EFE9FFE0319797
:0804B600F1F700C000000895F9
:1004BE00CF92DF92EF92CF93DF936B01E82E842FD2
:1004CE00880F880F880F8064D8E0D80FF601C4918A
:1004DE00EE24E394E80E60DF8C2FB6DEFFEFCF1A2A
:1004EE00DF0A8E2DED12F2CFDF91CF91EF90DF90DC
:0404FE00CF900895FE
:100502002C9885E38A95F1F700004B9B0CC04D9B1C
:1005120007C04C9B0EC04A9B09C02C9A8FEF0895CE
:100522002C9A82E308952C9A81E308952C9A81E40F
:0805320008952C9A83E308955B
:02053A0062CD90
:10053C00001F000000001F00001F101010101F00F3
:10054C00001F181818181F00001F1C1C1C1C1F0053
:10055C00001F1E1E1E1E1F00001F1F1F1F1F1F001F
:10056C0003070F1F0F070300181C1E1F1E1C18006B
:10057C001F920F920FB60F9211248F9381E08093EC
:0E058C0002018F910F900FBE0F901F901895D7
:01059A00FF61
:00000001FF
