:100000000C9443000C941A0B0C941A0B0C941A0BBE
:100010000C941A0B0C941A0B0C941A0B0C941A0BCC
:100020000C941A0B0C941A0B0C941A0B0C941A0BBC
:100030000C941A0B0C941A0B0C94E80A0C941A0BDF
:100040000C941A0B0C941A0B0C941A0B0C941A0B9C
:100050000C941A0B0C941A0B0C941A0B0C941A0B8C
:100060000C941A0B0C941A0B010001018001010180
:10007000110016380111012F80012F0130001648A0
:1000800001300132800011241FBECFEFD8E0DEBF67
:10009000CDBFE8E6F0E040E017C0B591A5913591FD
:1000A0002591059107FD0CC095918591EF01F92FE0
:1000B000E82F05900D92A217B307D9F7FE0104C0EF
:1000C0001D92A217B307E1F7E538F40731F70E9454
:0A00D0008C090C946B00F894FFCF2C
:1000DA00001F000000001F00001F101010101F005A
:1000EA00001F181818181F00001F1C1C1C1C1F00BA
:1000FA00001F1E1E1E1E1F00001F1F1F1F1F1F0086
:10010A0003070F1F0F070300181C1E1F1E1C1800D1
:10011A0030303A303000253032643A2530326400CB
:0C012A0046494E2020002020202020000C
:10013600882309F4CDC081E090E090932A01809352
:100146002901613479F038F4633209F4C1C06A32A6
:1001560009F4BEC07FC06334D9F1F8F0643409F401
:1001660052C078C081E090E09093280180932701E7
:10017600109226011092250110922401109223015B
:10018600109222011092210110922C0110922B0143
:1001960010921801109217019BC01092280110921C
:1001A600270181E090E0909326018093250110922B
:1001B60024011092230110922201109221019093A2
:1001C6002C0180932B01109218011092170180C008
:1001D60010922801109227011092260110922501F3
:1001E600109224011092230181E090E09093220165
:1001F6008093210110922C0110922B01109218016C
:100206001092170165C0109228011092270181E013
:1002160090E090932601809325011092240110927C
:100226002301109222011092210120911F01309189
:100236002001232B11F080E090E090932001809321
:100246001F0110922C0110922B011092180110928E
:1002560017013EC081E090E090931801809317014A
:1002660080910001823009F414C2833009F411C26E
:1002760080ED860F8A30C0F420911D0130911E0159
:10028600C901880F991F220F331F220F331F220F18
:10029600331F820F931F70E060537109860F971FFB
:1002A60090931E0180931D01109228011092270140
:1002B600109226011092250110922401109223011A
:1002C600109222011092210110922C0110922B0102
:1002D60020911F01309120012115310521F083E085
:1002E60080930001089580910001823009F4C4C012
:1002F60030F4882359F0813009F440C0B2C183300C
:1003060009F43BC1843009F48AC1ABC110921A01C9
:10031600109219018091270190912801892B51F0A3
:1003260080911D0190911E01892B21F082E080931E
:10033600000197C18091210190912201019751F40A
:100346008EE190E090931E0180931D0182E08093E0
:10035600000187C18091170190911801019709F05A
:1003660080C181E08093000180911B0190911C0166
:10037600019690931C0180931B0173C18091290102
:1003860090912A01019709F06CC180912701909103
:100396002801019759F4232B49F482E08093000148
:1003A60080912E01836080932E015BC180912B0189
:1003B60090912C01019759F410921E0110921D0183
:1003C60010921C0110921B01109200014AC18091EB
:1003D600170190911801019729F580911D019091BF
:1003E6001E01892B31F480911B0190911C01892BF0
:1003F60049F080911B0190911C01019690931C017C
:1004060080931B0180911B0190911C0105970CF4B0
:1004160028C110921C0110921B0110921E0110920D
:100426001D011FC18091210190912201019709F0C0
:1004360018C180911D0190911E0164E670E00E9432
:100446007B0AAB019C01225E3F4F2C33310524F021
:100456004F5F5F4F2C53310964E6649FC001659F6F
:10046600900D1124820F931F90931E0180931D01FE
:1004760082E080930001F5C02130310519F483E054
:10048600809300018091250190912601892B21F00E
:1004960083E080930001E5C08091230190912401BF
:1004A600892B21F084E080930001DBC080911D013F
:1004B60090911E0164E670E00E947B0A6C33710520
:1004C60014F06BE370E08C33910514F08BE390E04D
:1004D6002091210130912201232B89F09C01225E7B
:1004E6003F4F2C3331053CF06B33710531F06F5FB4
:1004F6007F4F4E9704C0C90102C08BE390E044E6EB
:10050600469F9001479F300D1124280F391F3093C5
:100516001E0120931D0190912D019F5F90932D0147
:10052600943608F49EC010922D01C90164E670E06D
:100536000E947B0AAB019C01181619061CF4215077
:10054600310908C0161617062CF4AB0141505109A3
:100556002BE330E064E6649FC001659F900D112493
:10056600820F931F90931E0180931D01892B09F022
:1005760078C084E08093000174C080912701909137
:100586002801892B29F0232B19F482E0809300019E
:100596008091170190911801892B51F010921E013C
:1005A60010921D0110921C0110921B011092000165
:1005B60080912B0190912C01892B51F010921C01F6
:1005C60010921B0110921E0110921D011092000143
:1005D6008091210190912201892B09F442C08091DA
:1005E6001D0190911E0164E670E00E947B0AAB013A
:1005F6009C01225E3F4F2C33310524F04F5F5F4F45
:100606002C53310964E6649FC001659F900D112447
:10061600820F931F90931E0180931D0122C080912B
:10062600290190912A01892B31F480911901909129
:100636001A01059711F41092000180912D0184365C
:1006460058F08091190190911A01019690931A0120
:100656008093190110922D0180912D018F5F809357
:100666002D0110922A011092290110922201109256
:100676002101109218011092170110922801109270
:100686002701109226011092250110922C0110923A
:040696002B01089597
:10069A002F923F924F926F927F928F929F92AF9238
:1006AA00BF92CF92DF92EF92FF920F931F93CF9355
:1006BA00DF93CDB7DEB762970FB6F894DEBF0FBEF1
:1006CA00CDBF6C013A01862E7901FC011086178292
:1006DA00848181FFE7C19E012F5F3F4F3D872C87B1
:1006EA00C901A0E8888B998BAA8B9FE3992EF30105
:1006FA00849187FC8081882309F4D0C1482D930115
:10070A002F5F3F4F4F4F853219F03901842E0AC0AF
:10071A00F901849147FD808192E0690E711C811C68
:10072A00853229F4B60190E00E94EA08E0CFB12CA4
:10073A0000E010E01032A0F48B3269F030F480321D
:10074A0059F0833269F410612CC08D3239F080334C
:10075A0039F4116026C01260146023C0186021C0E9
:10076A0017FD29C090ED980F9A3078F416FF06C04D
:10077A00AAE0BA9E900D1124B92E13C0EAE00E9F8A
:10078A00900D1124092F10620CC08E3221F416FD2F
:10079A0085C1106406C08C3611F4106802C0883610
:1007AA0051F4F301849187FC8081FFEF6F1A7F0A6D
:1007BA008F0A8111BFCF982F9F7D9554933028F4CB
:1007CA0024E0E20EF11C99820FC0833631F08337A0
:1007DA0091F0833509F063C027C0F70180818983CE
:1007EA0097012E5F3F4F7901288839884A88AA24C1
:1007FA00A394B12C17C0A7014D5F5F4F5F874E8747
:10080A00F70120803180428016FF03C04B2D50E053
:10081A0002C04FEF5FEF842DB1010E94140A5C0100
:10082A00EE84FF841F7718C097012D5F3F4F3F87E3
:10083A002E87F70120803180428016FF03C04B2D9E
:10084A0050E002C04FEF5FEF842DB1010E94140AFD
:10085A005C011068EE84FF8413FD1DC0802F90E0B8
:10086A00A816B906C0F4B60180E290E00E94EA0830
:10087A000150F4CFF101849147FC8081FFEF2F1AD8
:10088A003F0A4F0AB60190E00E94EA08011101509E
:10089A0021E0A21AB108A114B10461F7F5C08436A7
:1008AA0011F0893671F5F70117FF08C0608171816F
:1008BA008281938197012C5F3F4F09C060817181CA
:1008CA00072E000C880B990B97012E5F3F4F790179
:1008DA001F76312E97FF0AC0909580957095619585
:1008EA007F4F8F4F9F4F312F3068332E2AE030E0F1
:1008FA00AE014F5F5F4F0E948C08482E4C85441A08
:10090A004AC0853729F41F7EA12E2AE030E025C08F
:10091A00512F597FA52E8F36C1F018F4883579F0FA
:10092A00BDC0803719F0883721F0B8C0852F8061A3
:10093A00A82EA4FE0DC09A2D9460A92E09C014FFFA
:10094A000AC0A52FA660AA2E06C028E030E005C07E
:10095A0020E130E002C020E132E0F701A7FE08C042
:10096A006081718182819381A7014C5F5F4F07C0CB
:10097A006081718180E090E0A7014E5F5F4F7A014C
:10098A00AE014F5F5F4F0E948C08482E5C85451A66
:10099A008A2D8F77382E36FE0DC0932D9E7FA92E75
:1009AA004B1458F434FE0BC032FC09C0A32DAE7EA2
:1009BA00AA2E05C0142DA32C03C0142D01C01B2D73
:1009CA00A4FE0EC0FE01E40DF11D8081803321F4E6
:1009DA00EA2DE97EAE2E08C0A2FE05C01E5F04C045
:1009EA008A2D867809F01F5FA3FC11C0A0FE06C0FD
:1009FA00101788F4040DB02EB11A0EC0101760F447
:100A0A00B60180E290E00E94EA081F5FF7CF101754
:100A1A0018F4011B02C0B42C00E0A4FE10C0B601F9
:100A2A0080E390E00E94EA08A2FE17C0A1FC03C07E
:100A3A0088E790E002C088E590E0B6010CC08A2DF4
:100A4A00867859F0A1FE02C08BE201C080E2A7FCC1
:100A5A008DE2B60190E00E94EA084B1438F4B60120
:100A6A0080E390E00E94EA08BA94F7CF4A94E1E062
:100A7A00F0E0EC0FFD1FE40DF11D8081B60190E05E
:100A8A000E94EA084110F2CF002309F430CEB601E1
:100A9A0080E290E00E94EA080150F6CFF6018781D1
:100AAA00908502C08FEF9FEF62960FB6F894DEBF73
:100ABA000FBECDBFDF91CF911F910F91FF90EF90A5
:100ACA00DF90CF90BF90AF909F908F907F906F9064
:080ADA004F903F902F9008950A
:100AE200CF93DF93EC01809100018230E9F128F489
:100AF200882351F08130A1F0A5C0833009F45DC094
:100B0200843009F483C09EC026E030E04AE151E01F
:100B120060E081E191E00E944A0A10922E0192C0A7
:100B220080911D0190911E0164E670E00E947B0A93
:100B32009F938F937F936F9380E291E0A0E0AF93B6
:100B42009F938F931F9286E08F9381E191E09F9311
:100B52008F930E945B098DB79EB70B960FB6F894E0
:100B62009EBF0FBE8DBF6EC080911D0190911E0170
:100B720064E670E00E947B0A9F938F937F936F934A
:100B820080E291E0A0E0AF939F938F931F9286E063
:100B92008F9381E191E09F938F930E945B098091F3
:100BA2002E01836080932E018DB79EB70B960FB6F0
:100BB200F8949EBF0FBE8DBF45C080911D019091DC
:100BC2001E0164E670E00E947B0A9F938F937F93DD
:100BD2006F9380E291E0A0E0AF939F938F931F9277
:100BE20086E08F9381E191E09F938F930E945B094E
:100BF20080912E018E7F80932E018DB79EB70B962A
:100C02000FB6F8949EBF0FBE8DBF1CC080912D0100
:100C1200823368F426E030E04AE251E060E081E1AC
:100C220091E00E944A0A84E080932E010BC026E0E4
:100C320030E040E351E060E081E191E00E944A0A45
:100C420010922E0180912E01888381E191E0DF9143
:040C5200CF910895A1
:100C5600CF93DF93CDB7DEB760970FB6F894DEBFBC
:100C66000FBECDBF80E1E1E0F1E0DE01119601901B
:100C76000D928A95E1F785B18F7E85B983E08A95D5
:100C8600F1F700004B9905C085B1806185B989816E
:100C96008BC04D9905C085B1806185B98A8184C0B4
:100CA6004C9905C085B1806185B98B817DC04A9913
:100CB60005C085B1806185B98C8176C085B18061BA
:100CC60085B985B1877F85B983E08A95F1F70000FC
:100CD6004B9905C085B1886085B98D8165C04D99F0
:100CE60005C085B1886085B98E815EC04C9905C006
:100CF60085B1886085B98F8157C04A9905C085B18D
:100D0600886085B9888550C085B1886085B985B108
:100D16008E7F85B983E08A95F1F700004B9905C06F
:100D260085B1816085B989853FC04D9905C085B17A
:100D3600816085B98A8538C04C9905C085B18160C6
:100D460085B98B8531C04A9905C085B1816085B961
:100D56008C852AC085B1816085B98BB18F778BB9B7
:100D660083E08A95F1F700004B9905C08BB1806846
:100D76008BB98D8519C04D9905C08BB180688BB92B
:100D86008E8512C04C9905C08BB180688BB98F8552
:100D96000BC04A9905C08BB180688BB9888904C09D
:100DA6008BB180688BB98FEF60960FB6F894DEBF73
:0A0DB6000FBECDBFDF91CF9108956D
:100DC00065B1982F9074492F50E0559547955595EA
:100DD00047955595479555954795982F9078292F84
:100DE00030E0022E232F000C221F330B000C221F99
:100DF000331F962F997F492B242B25B968B1982F43
:100E00009071492F50E055954795559547955595C3
:100E10004795982F9072292F30E035952795359575
:100E2000279535952795962F997F492B242B28B9FF
:100E30009BB192609BB99BB191609BB925ED2A95BE
:100E4000F1F700009BB19E7F9BB99BB19D7F9BB941
:100E500095ED9A95F1F7000065B120E1829FC00100
:100E60001124AC01407455275595479555954795E4
:100E700055954795559547959C0120783327022E27
:100E8000232F000C221F330B000C221F331F362F81
:100E9000397F432B242B25B948B19C01207133277E
:100EA00035952795359527953595279580729927FE
:100EB000959587959595879595958795942F997F85
:100EC000292B822B88B98BB182608BB98BB1816061
:100ED0008BB985ED8A95F1F700008BB18E7F8BB9C8
:100EE0008BB18D7F8BB995ED9A95F1F70000089540
:100EF00065B1982F9074492F50E0559547955595B9
:100F000047955595479555954795982F9078292F52
:100F100030E0022E232F000C221F330B000C221F67
:100F2000331F962F997F492B242B25B968B1982F11
:100F30009071492F50E05595479555954795559592
:100F40004795982F9072292F30E035952795359544
:100F5000279535952795962F997F492B242B28B9CE
:100F60009BB191609BB9EFE9FFE03197F1F700C0C9
:100F700000009BB19E7F9BB9EFE9FFE03197F1F74D
:100F800000C0000065B1F0E18F9FC0011124AC01E9
:100F900040745527559547955595479555954795CF
:100FA000559547959C0120783327022E232F000C5E
:100FB000221F330B000C221F331F362F397F432B88
:100FC000242B25B948B19C012071332735952795ED
:100FD000359527953595279580729927959587950D
:100FE0009595879595958795942F997F292B822B99
:100FF00088B98BB181608BB98FE99FE00197F1F7D8
:1010000000C000008BB18E7F8BB9EFE9FFE0319714
:08101000F1F700C00000089593
:10101800CF93DF932FEF86E791E0215080409040F7
:10102800E1F700C0000085B1897F85B988B1897F63
:1010380088B91BB884B1866084B987B1866087B9DE
:101048008AB183608AB985B1897F85B988B186609C
:1010580088B98BB181608BB98FE99FE00197F1F76F
:1010680000C000008BB18E7F8BB98FE99FE001979C
:10107800F1F700C0000085B1897F85B988B1866025
:1010880088B98BB181608BB98FE99FE00197F1F73F
:1010980000C000008BB18E7F8BB98FE99FE001976C
:1010A800F1F700C0000085B1897F85B988B1897FD3
:1010B800846088B98BB181608BB98FE99FE0019713
:1010C800F1F700C000008BB18E7F8BB98FE99FE0EC
:1010D8000197F1F700C0000088E20E9478078CE0D1
:1010E8000E94780740E0C0E00EC0D1E0D40F8C2FFA
:1010F80090E0A0E0BC018A2F66527F4F8F4F0E947C
:101108002609C85F4D2FC03480F3DF91CF91089531
:10111800FA01AA27283051F1203181F1E8946F9320
:101128006E7F6E5F7F4F8F4F9F4FAF4FB1E03ED0C6
:10113800B4E03CD0670F781F891F9A1FA11D680F64
:10114800791F8A1F911DA11D6A0F711D811D911D97
:10115800A11D20D009F468943F912AE0269F11240C
:101168003019305D3193DEF6CF010895462F477070
:10117800405D4193B3E00FD0C9F7F6CF462F4F70CB
:10118800405D4A3318F0495D31FD4052419302D029
:10119800A9F7EACFB4E0A6959795879577956795CF
:1011A800BA95C9F700976105710508959B01AC01CF
:1011B8000A2E06945795479537952795BA95C9F7F6
:0C11C800620F731F841F951FA01D089567
:1011D4000F931F93CF93DF93FB01248121FD03C061
:1011E4008FEF9FEF2CC022FF16C0478150852581C9
:1011F40036814217530744F4A081B1819D012F5FCA
:101204003F4F318320838C93278130852F5F3F4F5D
:101214003087278314C08B01EC01FB010184F28524
:10122400E02D0995892BE1F6D80117968D919C91B3
:101234001897019618969C938E931797CE01DF9179
:08124400CF911F910F91089555
:10124C00CF92DF92EF920F931F93CF93DF936B01AB
:10125C00E82E842F90E0880F991F880F991F880F14
:10126C00991F806400E010E015C04E2D9601200FF0
:10127C00311F411D17FD4A95642FA901FA01C49134
:10128C00D1E0D80F0E9478078C2F0E94E0060F5FE8
:10129C001F4F8D2F0830110540F3DF91CF911F9117
:0A12AC000F91EF90DF90CF900895AE
:1012B600AFE0B0E0E1E6F9E00C94060A0E891F897A
:1012C600888D998D26E02D831A83098397FF02C0A6
:1012D60080E090E801979F838E839E01235E3F4FB7
:1012E6004A8D5B8D6C8DCE0101960E944D034E8119
:1012F6005F8157FD0AC028853985421753070CF4CC
:101306009A01F801E20FF31F10822F96E4E00C9485
:021316003D0A8E
:10131800CF93DF9300D0CDB7DEB778940E940C0846
:101328000E94A30A0E940F0B0E94F70A61E081E065
:101338000E94D90A0E94160B809131018130E1F791
:1013480010923101CE0101960E94BC0969810E9468
:101358009B0061E081E00E94D90ACE0102960E94BA
:10136800710565E00E94630A8A810E94DC09E4CF66
:10137800CF93DF93EC010E942B068F3F31F48093CB
:10138800300180932F0180E010C0909130018913C3
:1013980009C090912F01891729F0888380932F0124
:1013A80081E003C08093300180E0DF91CF91089500
:1013B80080FF04C095B1906295B903C095B19F7D37
:1013C80095B981FF04C098B1906198B903C098B1EC
:1013D8009F7E98B982FF04C088B1806288B9089559
:0813E80088B18F7D88B90895DA
:1013F0002F923F924F925F926F927F928F929F9225
:10140000AF92BF92CF92DF92EF92FF920F931F9312
:10141000CF93DF93CDB7DEB7CA1BDB0B0FB6F894C3
:08142000DEBF0FBECDBF099431
:10142800CF92DF92EF926B01E82EA82FCB014115E6
:10143800510531F48C199D09EF90DF90CF900895F4
:10144800FC012491A7FD20812223A1F30196A11D6F
:0614580041505109ECCFE8
:10145E002A88398848885F846E847D848C849B8436
:10146E00AA84B984C884DF80EE80FD800C811B8144
:10147E00AA81B981CE0FD11D0FB6F894DEBF0FBE73
:06148E00CDBFED01089541
:10149400CF92DF92EF92DC016A01E62E280F391F0A
:1014A400A217B30751F0F6014491E7FC40814D9334
:1014B4004FEFC41AD40AE40AF3CFEF90DF90CF9031
:0214C400089589
:1014C6000F931F93CF93DF93009769F0D62F8C016C
:1014D600C0E007C0F801EC0FF11D80810E94E00614
:1014E600CF5FCD17B8F3DF91CF911F910F9108957C
:1014F60097FB072E16F4009407D077FD09D00E94BB
:101506008F0A07FC05D03EF4909581959F4F08956C
:08151600709561957F4F089567
:10151E00AA1BBB1B51E107C0AA1FBB1FA617B7070B
:10152E0010F0A61BB70B881F991F5A95A9F7809527
:08153E009095BC01CD01089558
:101546001092000110921C0110921B0110921E01B4
:1015560010921D0110922D011092200110921F0170
:0615660010922E01089511
:10156C0084B1896184B98AB180688AB985B189618D
:10157C0085B98BB180688BB98AB1837C8AB98BB100
:06158C008C638BB9089589
:1015920084B1806284B987B1806387B985B1806282
:1015A20085B988B18F7E88B988B18F7D88B9089551
:1015B200623031F0633031F0613029F4805C03C075
:0E15C2008C5E01C08C5A80680E9478070895E4
:1015D0001F920F920FB60F9211248F9381E0809388
:0E15E00031018F910F900FBE0F901F90189544
:1015EE0084B5826084BD8CE987BDEEE6F0E0808133
:0C15FE008260808385B5856085BD0895FE
:10160A0087B1866087B984B1866084B98AB18360FC
:04161A008AB90895EC
:0E161E000E94C90A0E94050B0E94B60A089598
:08162C0081E00E947807089597
:041634000C94000012
:101638003132334134353642373839432A3023443E
:01164800FFA2
:00000001FF
