:100000000C943A000C9429030C9429030C942903B2
:100010000C9429030C9429030C9429030C942903B0
:100020000C9429030C9429030C9429030C942903A0
:100030000C9429030C9429030C9408030C942903B1
:100040000C9429030C9429030C9429030C94290380
:100050000C9429030C9429030C9429030C94290370
:100060000C9429030C942903010001110006560188
:100070001101138011241FBECFEFD8E0DEBFCDBF2A
:10008000E8E6F0E040E017C0B591A59135912591E3
:10009000059107FD0CC095918591EF01F92FE82F8F
:1000A00005900D92A217B307D9F7FE0104C01D9267
:1000B000A217B307E1F7E437F40731F70E94C8024B
:0800C0000C946200F894FFCFDC
:1000C800001F000000001F00001F101010101F006C
:1000D800001F181818181F00001F1C1C1C1C1F00CC
:1000E800001F1E1E1E1E1F00001F1F1F1F1F1F0098
:1000F80003070F1F0F070300181C1E1F1E1C1800E4
:1001080065B1982F9074492F50E0559547955595AE
:1001180047955595479555954795982F9078292F48
:1001280030E0022E232F000C221F330B000C221F5D
:10013800331F962F997F492B242B25B968B1982F07
:100148009071492F50E05595479555954795559588
:100158004795982F9072292F30E03595279535953A
:10016800279535952795962F997F492B242B28B9C4
:100178009BB192609BB99BB191609BB925ED2A9583
:10018800F1F700009BB19E7F9BB99BB19D7F9BB906
:1001980095ED9A95F1F7000065B120E1829FC001C5
:1001A8001124AC01407455275595479555954795A9
:1001B80055954795559547959C0120783327022EEC
:1001C800232F000C221F330B000C221F331F362F46
:1001D800397F432B242B25B948B19C012071332743
:1001E80035952795359527953595279580729927C3
:1001F800959587959595879595958795942F997F4A
:10020800292B822B88B98BB182608BB98BB1816025
:100218008BB985ED8A95F1F700008BB18E7F8BB98C
:100228008BB18D7F8BB995ED9A95F1F70000089504
:1002380065B1982F9074492F50E05595479555957D
:1002480047955595479555954795982F9078292F17
:1002580030E0022E232F000C221F330B000C221F2C
:10026800331F962F997F492B242B25B968B1982FD6
:100278009071492F50E05595479555954795559557
:100288004795982F9072292F30E035952795359509
:10029800279535952795962F997F492B242B28B993
:1002A8009BB191609BB9EFE9FFE03197F1F700C08E
:1002B80000009BB19E7F9BB9EFE9FFE03197F1F712
:1002C80000C0000065B1F0E18F9FC0011124AC01AE
:1002D8004074552755954795559547955595479594
:1002E800559547959C0120783327022E232F000C23
:1002F800221F330B000C221F331F362F397F432B4D
:10030800242B25B948B19C012071332735952795B1
:1003180035952795359527958072992795958795D1
:100328009595879595958795942F997F292B822B5D
:1003380088B98BB181608BB98FE99FE00197F1F79C
:1003480000C000008BB18E7F8BB9EFE9FFE03197D9
:08035800F1F700C00000089558
:10036000CF93DF932FEF86E791E0215080409040BC
:10037000E1F700C0000085B1897F85B988B1897F28
:1003800088B91BB884B1866084B987B1866087B9A3
:100390008AB183608AB985B1897F85B988B1866061
:1003A00088B98BB181608BB98FE99FE00197F1F734
:1003B00000C000008BB18E7F8BB98FE99FE0019761
:1003C000F1F700C0000085B1897F85B988B18660EA
:1003D00088B98BB181608BB98FE99FE00197F1F704
:1003E00000C000008BB18E7F8BB98FE99FE0019731
:1003F000F1F700C0000085B1897F85B988B1897F98
:10040000846088B98BB181608BB98FE99FE00197D7
:10041000F1F700C000008BB18E7F8BB98FE99FE0B0
:100420000197F1F700C0000088E20E941C018CE0F7
:100430000E941C0140E0C0E00EC0D1E0D40F8C2F20
:1004400090E0A0E0BC018A2F68537F4F8F4F0E943D
:100450007302C85F4D2FC03480F3DF91CF910895B0
:10046000CF93DF93CDB7DEB760970FB6F894DEBFBA
:100470000FBECDBF80E1E0E0F1E0DE01119601901A
:100480000D928A95E1F785B18F7E85B985E38A95CE
:10049000F1F700004B9905C085B1806185B989816C
:1004A00019C04D9905C085B1806185B98A8112C096
:1004B0004C9905C085B1806185B98B810BC04A9983
:1004C00005C085B1806185B98C8104C085B180612A
:1004D00085B98FEF60960FB6F894DEBF0FBECDBF23
:0604E000DF91CF910895A9
:1004E600CF92DF92EF920F931F93CF93DF936B011F
:1004F600E82E842F90E0880F991F880F991F880F88
:10050600991F806400E010E015C04E2D9601200F63
:10051600311F411D17FD4A95642FA901FA01C491A7
:10052600D1E0D80F0E941C018C2F0E9484000F5F1F
:100536001F4F8D2F0830110540F3DF91CF911F918A
:0A0546000F91EF90DF90CF90089521
:10055000CF93DF93EC010E9430028F3F31F4809300
:1005600011018093100180E010C090911101891356
:1005700009C090911001891729F088838093100198
:1005800081E003C08093110180E0DF91CF91089555
:1005900078940E94B0010E94E6020E94170361E075
:1005A00081E00E94F9020E942503809112018130AE
:1005B000E1F71092120180E090E00E94A8028823E7
:0C05C000A1F3809100000E948400EFCFA6
:1005CC0084B1896184B98AB180688AB985B189613D
:1005DC0085B98BB180688BB98AB1837C8AB98BB1B0
:0605EC008C638BB9089539
:1005F200623031F0633031F0613029F4805C03C045
:0E0602008C5E01C08C5A80680E941C01089515
:100610001F920F920FB60F9211248F9381E0809357
:0E06200012018F910F900FBE0F901F90189532
:10062E0084B5826084BD8CE987BDEEE6F0E0808102
:0C063E008260808385B5856085BD0895CD
:08064A0081E00E941C010895EB
:040652000C94000004
:100656003132334134353642373839432A30234430
:01066600FF94
:00000001FF
