:100000000C9443000C944D130C944D130C944D130D
:100010000C944D130C944D130C944D130C944D13E0
:100020000C944D130C944D130C944D130C944D13D0
:100030000C944D130C944D130C94D0120C944D133E
:100040000C944D130C944D130C944D130C944D13B0
:100050000C944D130C944D130C944D130C944D13A0
:100060000C944D130C944D13010001038001030106
:10007000130026A80113012C80012C012D00014D35
:10008000012D012F800011241FBECFEFD8E0DEBF6D
:10009000CDBFE8E6F0E040E017C0B591A5913591FD
:1000A0002591059107FD0CC095918591EF01F92FE0
:1000B000E82F05900D92A217B307D9F7FE0104C0EF
:1000C0001D92A217B307E1F7E538F40731F70E9454
:0A00D0002D110C942113F894FFCFBA
:1000DA00001F000000001F00001F101010101F005A
:1000EA00001F181818181F00001F1C1C1C1C1F00BA
:1000FA00001F1E1E1E1E1F00001F1F1F1F1F1F0086
:10010A0003070F1F0F070300181C1E1F1E1C1800D1
:10011A0068076C094C836A9074A07AC0008068886A
:06012A0000846C820081DC
:1001300030303A303000253032643A2530326400B5
:07014000286E756C6C2900AC
:06014700286E696C29001E
:01014D00FFB2
:10014E00A3EAB0E0EDEAF0E00C94DE114C015901A7
:10015E00C756DF4F488359836A83C959D040212C33
:10016E00312C6E012BE8C20ED11C85E2782E2601B1
:10017E0030E8632ECE018D569F4FC456DF4F9983C4
:10018E008883CC59D0409C0140E8CF55DF4F28835F
:10019E0039834A83C15AD040C756DF4F4881C95967
:1001AE00D040C656DF4F5881CA59D040C556DF4F92
:1001BE006881CB59D040FA01849167FD80818823F4
:1001CE0009F4C9C3CF57DF4F19821882C158D040E6
:1001DE008FEF9FEFCD57DF4F99838883C358D04061
:1001EE00CB57DF4F19821882C558D040A1E0B0E03E
:1001FE00AC0FBD1FC957DF4FB983A883C758D04076
:10020E00E0E8F0E0C757DF4FF983E883C958D040E4
:10021E00CA01A62FE12CF12CFC012491A7FD20810F
:10022E0021111BC0E114F10401F19701C4010E94D8
:10023E00F910C756DF4F88819981AA81C959D040DC
:10024E008E0D9F1DA11DF7FCAA95C756DF4F888303
:10025E009983AA83C959D04008C00196A11D2532A1
:10026E0009F3FFEFEF1AFF0AD7CFC756DF4F88818A
:10027E009981AA81C959D040FC012491A7FD208102
:10028E00253209F056C39C014A2F2F5F3F4F4F4F27
:10029E00C256DF4F288339834A83CE59D040C75682
:1002AE00DF4F288339834A83C959D040C756DF4F61
:1002BE0088819981AA81C959D040FC012491A7FD5A
:1002CE0020812B3241F4CF57DF4F28813981C1581D
:1002DE00D04024600BC02C32CCF02D3259F5CF57C4
:1002EE00DF4F28813981C158D0402160CF57DF4F71
:1002FE0039832883C158D0400196A11DC756DF4FC0
:10030E0088839983AA83C959D040D0CF203241F433
:10031E00CF57DF4F28813981C158D0402860E6CFB2
:10032E00233291F4CF57DF4F28813981C158D04005
:10033E002061DCCF203341F4CF57DF4F2881398144
:10034E00C158D0402260D2CF2A3299F50196A11D14
:10035E00C756DF4F88839983AA83C959D040D501E8
:10036E00ED91FC911197CF0102968D939C93808114
:10037E009181CB57DF4F99838883C558D04097FF23
:10038E003EC0CF57DF4F28813981C158D040B1E0F0
:10039E002B27CF57DF4F39832883C158D0409195F3
:1003AE0081959109CB57DF4F99838883C558D040EB
:1003BE0026C0BC018A2F0E947C10CB57DF4F998339
:1003CE008883C558D040C756DF4F288139814A816E
:1003DE00C959D040F901849147FD8081082E000C47
:1003EE00990BC0970A9758F42F5F3F4F4F4FC75640
:1003FE00DF4F288339834A83C959D040E4CFCF5782
:10040E00DF4F88819981C158D04080FF07C08D7F12
:10041E00CF57DF4F99838883C158D040C756DF4FDF
:10042E0088819981AA81C959D040FC012491A7FDE8
:10043E0020812E3209F058C0CD57DF4F1982188215
:10044E00C358D0409C014A2F2F5F3F4F4F4FC75686
:10045E00DF4F288339834A83C959D040F90154911B
:10046E0047FD50815A32D1F40296A11DC756DF4F77
:10047E0088839983AA83C959D040D501ED91FC9107
:10048E001197CF0102968D939C9380819181CD57C8
:10049E00DF4F99838883C358D04026C0842FB9017B
:1004AE000E947C10CD57DF4F99838883C358D0406C
:1004BE00C756DF4F288139814A81C959D040F90189
:1004CE00849147FD8081082E000C990BC0970A97E6
:1004DE0058F42F5F3F4F4F4FC756DF4F2883398356
:1004EE004A83C959D040E4CFCE0187569F4F0E9410
:1004FE00E40F182FC756DF4F2881C959D040C65672
:10050E00DF4F8881CA59D040C556DF4F9881CB59ED
:10051E00D040E22FF82F849197FD8081082E000C99
:10052E00990B0E943E138936910509F45AC0B4F412
:10053E008336910509F466C144F48532910509F4B8
:10054E00A1C18136910529F1B3C18436910509F413
:10055E0048C0883691050CF42DC1AAC1803791058B
:10056E0009F4CBC04CF48E36910509F419C18F36BF
:10057E00910509F47CC09CC18537910509F454C0DE
:10058E008837910509F496C08337910509F090C11B
:10059E0058C1612F70E0A501C6010E94A011892BE0
:1005AE0009F4B7C1C756DF4F88819981AA81C9590D
:1005BE00D0409C014A2F2F5F3F4F4F4FC756DF4F02
:1005CE00288339834A83C959D040FC012491A7FD61
:1005DE002081A601BE016F577F4FC4010E944A13AE
:1005EE0095C1612F70E0950141E050E0C6010E9477
:1005FE00D608892B09F48DC1C756DF4F88819981A2
:10060E00AA81C959D0400196A11DC756DF4F8883D4
:10061E009983AA83C959D040A601BE016F577F4F57
:10062E00C4010E94170872C1612F70E0950140E06D
:10063E0050E0C6010E94D608892B09F46AC1C7563C
:10064E00DF4F88819981AA81C959D0400196A11D99
:10065E00C756DF4F88839983AA83C959D040A60114
:10066E00BE016F577F4FC4010E94E90E4FC1612F2B
:10067E0070E0950140E050E0C6010E94D608892B3B
:10068E0009F447C1C756DF4F88819981AA81C9599C
:10069E00D0400196A11DC756DF4F88839983AA8348
:1006AE00C959D040A601BE016F577F4FC4010E94A9
:1006BE001A0E2CC1612F70E0950140E050E0C6018A
:1006CE000E94D608892B09F424C1C756DF4F8881B2
:1006DE009981AA81C959D0409C014A2F2F5F3F4F63
:1006EE004F4FC756DF4F288339834A83C959D040AD
:1006FE00FC012491A7FD20814BC0950140E050E004
:10070E0060EF70E0C6010E94D608892B09F401C182
:10071E00C756DF4F88819981AA81C959D040019669
:10072E00A11DC756DF4F88839983AA83C959D0402C
:10073E0086E027E431E040E0F901DE01AD56BF4F1F
:10074E00742F0E940813D6012C9111963C9111978B
:10075E0012964C91129713965C91139714966C9176
:10076E00149715967C91159716968C911697179649
:10077E009C91A0E00E94151351F400E010E0CF55BB
:10078E00DF4F288139814A81C15AD040B9C028E74C
:10079E00A601BE016F577F4FC4010E94D706B6C097
:1007AE00612F70E09501A1014E0D5F1DC6010E94E3
:1007BE00AE0DAFC0612F70E0A501C6010E94A01161
:1007CE00892B09F4A6C0C756DF4F88819981AA816B
:1007DE00C959D0409C014A2F2F5F3F4F4F4FC756EC
:1007EE00DF4F288339834A83C959D040FC012491B5
:1007FE00A7FD2081A601BE016F577F4FC4010E9445
:10080E004A1384C0103809F084C0C756DF4F888160
:10081E009981AA81C959D0400196A11DC756DF4FB3
:10082E0088839983AA83C959D040D501ED91FC9153
:10083E001197CF0102968D939C938081F601808350
:10084E005BC0103809F065C0C756DF4F88819981AB
:10085E00AA81C959D0400196A11DC756DF4F888382
:10086E009983AA83C959D040D501ED91FC91119776
:10087E00CF0103968D939C9320813181428100E0BC
:10088E0010E03EC0103809F044C0C756DF4F8881D3
:10089E009981AA81C959D0400196A11DC756DF4F33
:1008AE0088839983AA83C959D040F601708224C0E7
:1008BE00D6017C92C256DF4F288139814A81CE59AA
:1008CE00D040C756DF4F288339834A83C959D04059
:1008DE00CF57DF4F19821882C158D040CB57DF4F08
:1008EE0019821882C558D0408FEF9FEFCD57DF4F3A
:1008FE0099838883C358D04001E010E0462D9201C1
:10090E00BE016F577F4FC4010E94840E8E0D9F1D36
:10091E0011C0C756DF4F88819981AA81C959D0402D
:10092E000196A11DC756DF4F88839983AA83C959A3
:10093E00D040C7017101E80EF91EE214F3044CF425
:10094E008FE490E090930201809301018FEF9FEF6F
:10095E0003C0170121CCC101CD55DF4FE2E10C944C
:02096E00FA117C
:10097000882309F4B4C081E090E09093280180932B
:100980002701623429F118F4613439F072C06334FC
:10099000D1F1643409F452C06CC081E090E09093CE
:1009A00026018093250110922401109223011092B8
:1009B0002201109221011092200110921F01109229
:1009C0002A011092290110921A011092190187C070
:1009D000109226011092250181E090E0909324016D
:1009E0008093230110922201109221011092200184
:1009F00010921F0190932A018093290110921A01ED
:100A0000109219016CC010922601109225011092CB
:100A1000240110922301109222011092210181E001
:100A200090E09093200180931F0110922A01109270
:100A3000290110921A011092190151C01092260139
:100A40001092250181E090E090932401809323018E
:100A500010922201109221011092200110921F0188
:100A600010922A011092290110921A011092190174
:100A700036C081E090E090931A018093190180EDD7
:100A8000860F8A30C0F480911D0190911E019C0157
:100A9000220F331F880F991F880F991F880F991FE6
:100AA000820F931F70E060537109680F791F709374
:100AB0001E0160931D0110922601109225011092D3
:100AC0002401109223011092220110922101109210
:100AD000200110921F0110922A0110922901809189
:100AE00000018130B1F138F0823009F499C08330CF
:100AF00009F40AC143C18091250190912601892BF7
:100B000021F082E08093000139C180911F01909112
:100B10002001019751F48EE190E090931E018093A3
:100B20001D0182E08093000129C1809119019091FB
:100B30001A01019709F022C181E0809300018091A0
:100B40001B0190911C01019690931C0180931B0145
:100B500015C18091270190912801019709F00EC1DC
:100B60008091250190912601019721F482E08093E4
:100B7000000104C18091290190912A01019759F443
:100B800010921E0110921D0110921C0110921B0167
:100B900010920001F3C08091190190911A01019700
:100BA000A9F480911B0190911C01019690931C0166
:100BB00080931B0105970CF4E1C010921C01109268
:100BC0001B0110921E0110921D01D8C080911F01BF
:100BD00090912001019709F0D1C080911D01909161
:100BE0001E0164E670E00E948912AB019C01225E46
:100BF0003F4F2C33310524F04F5F5F4F2C533109A9
:100C000064E6649FC001659F900D1124820F931FBD
:100C100090931E0180931D0182E080930001AEC07D
:100C20008091230190912401892B21F083E080930E
:100C30000001A4C08091210190912201892B21F013
:100C400084E0809300019AC080911D0190911E0163
:100C500064E670E00E9489126C33710514F06BE356
:100C600070E08C33910514F08BE390E020911F012C
:100C700030912001232B59F09C01225E3F4F2C33F1
:100C8000310524F06F5F7F4F4E9701C0C90144E6E4
:100C9000469F9001479F300D1124280F391F309334
:100CA0001E0120931D0190912B019F5F90932B01BA
:100CB000943608F463C010922B01C90164E670E019
:100CC0000E948912AB019C01181619061CF42150D0
:100CD000310908C0161617062CF4AB014150510912
:100CE0002BE330E064E6649FC001659F900D112402
:100CF000820F931F90931E0180931D01892BF1F5A4
:100D000084E0809300013AC08091250190912601F2
:100D1000892B19F082E08093000180912901909144
:100D20002A01892B31F010921E0110921D011092A0
:100D3000000180911F0190912001892BF9F0809191
:100D40001D0190911E0164E670E00E948912AB01C2
:100D50009C01225E3F4F2C33310524F04F5F5F4FE3
:100D60002C53310964E6649FC001659F900D1124E6
:100D7000820F931F90931E0180931D0110922801F2
:100D8000109227011092200110921F0110921A0157
:100D9000109219011092260110922501109224013F
:0E0DA0001092230110922A0110922901089549
:100DAE00A4E1B0E0EDEDF6E00C94DE1198878F83B0
:100DBE007A8369835C8B4B8B122FDB011296ED913C
:100DCE00FC91139714962D913C9115973E832D838C
:100DDE00ED90FC90119716962D903C901797F7FD7D
:100DEE0003C0E894E1F802C0E1E0F0E0C7018071D1
:100DFE0099279A878987E4FE1FC0AB89BC892C91FD
:100E0E0011963C91119712964C91129713965C91F4
:100E1E00139714966C91149715967C9115971696B8
:100E2E008C91169717969C91A0E00E94151321F0B5
:100E3E008D819E81029702C08D819E8197012870BF
:100E4E0033273C872B87E3FC0197AB89BC894C90F9
:100E5E0011965C90119712966C90129713967C9047
:100E6E00139714968C90149715969C90159716962A
:100E7E00AC9016971796BC90A981BA811896CD9012
:100E8E00DC901997B1E0CB1AD108D101AC0DBD1D84
:100E9E001C929C838B839F01281B390B3E872D87C9
:100EAE00C70182709927988B8F87812F012E000C96
:100EBE00990BDC01A154B109BA8BA98B32E0C31690
:100ECE00D10434F489859A85892B09F04CC073C0FE
:100EDE009201A301B401C501A0E00E94151381F196
:100EEE00B1E0CB1AD108C2018F7099278A309105D3
:100EFE0014F4C09602C0895A9F4FE989FA897A97ED
:100F0E0048F49C012062215631092A31310510F432
:100F1E000E943513F101EC0DFD1D80832B813C8168
:100F2E00215031093C832B839201A301B401C501E9
:100F3E0004E00E94C21129013A014B015C01BECFAF
:100F4E008D859E85AB81BC818A0F9B1F1816190655
:100F5E003CF21A161B060CF0B5CFEF85F889EF2B75
:100F6E0009F0BECFAFCFAB89BC892C9111963C91C5
:100F7E00119712964C91129713965C9113971496A3
:100F8E006C91149715967C91159716968C911697D1
:100F9E0017969C91A0E00E94151369F0F101EC0DDB
:100FAE00FD1D31971083B2E0CB1AD108F101EC0D83
:100FBE00FD1D80E38083EB85FC85EF2B41F0F1E096
:100FCE00CF1AD108F101EC0DFD1D80E28083A981BD
:100FDE00BA8118962D913C911997215031092C19EF
:100FEE003D09C20CD31CA60160E80D811E818F81C4
:100FFE0098850E94A70C9C01EF81F88580819181D4
:10100E0090FF09C0A981BA8112968D919C91139778
:10101E00821793070CF4C9016496E2E10C94FA115D
:10102E00ADE0B0E0EDE1F8E00C94DE119A8789872F
:10103E007C836B83FA01DB011296CD90DC901397C3
:10104E0014968D919C9115979E838D83ED90FC90B7
:10105E001197FA82E98216960D90BC91A02DB88751
:10106E00AF8320803180428053806480758086807B
:10107E0097808101B42DF52DE62D7B868C869D867D
:10108E009101A201B301C401A0E00E9415134CF41A
:10109E000E94B1128901B42FF52FE62F7B878C8722
:1010AE009D87D7FC04C0E894E1F8FA82E9829101A9
:1010BE00A201B301C401A0E0ED80FE800E941513D1
:1010CE001CF0898182FF04C081E0E81AF10805C096
:1010DE0083FF03C091E0E91AF108CE0101965C018D
:1010EE008AE0C82ED12C2B2F3F2F4E2F5B856C857F
:1010FE007D858B819C810E94440AFC019101A20195
:10110E00B301C401A0E00E9415131CF0898182FF77
:10111E0012C031970F8118850E0F1F1F9101A2016A
:10112E00B301C401A0E00E94151314F08BE201C0BC
:10113E008DE2D80108C083FF07C03197AF81B88513
:10114E00AE0FBF1F80E28C93E980FA80AB81BC8129
:10115E0018962D913C911997215031092E1B3F0B5A
:10116E008F819885E80FF91FAF0160E80D811E8110
:10117E0089859A850E94A70C9C01A985BA858D91B7
:10118E009C9190FF07C0EB81FC8182819381821735
:0E119E0093070CF4C9012D96E2E10C94FA11AE
:1011AC000F931F93CF93DF93FC01D901683871051E
:1011BC0031F194F461387105B1F12CF4603871059A
:1011CC0009F478C09FC06238710509F459C06438BD
:1011DC00710509F46FC096C0603A710509F448C0F6
:1011EC002CF46039710509F44BC08CC0603C71055E
:1011FC0009F476C0603F710509F472C083C0CD91CB
:10120C00DC911197CE0102968D939C93452B39F06E
:10121C009881892F880F880B908381835BC088818C
:10122C008083118268C0CD91DC911197CE01049618
:10123C008D939C93452B99F088819981AA81BB81D0
:10124C00AC01BD01770F440B542FBA0180839183FD
:10125C00A283B383448345834683478328C0088194
:10126C0019812A813B81008311832283338345C0FA
:10127C00CD91DC911197CE0102968D939C9323C056
:10128C00CD91DC911197CE0108968D939C9378812A
:10129C0069815A814B813C812D819E818F81708324
:1012AC00618352834383348325839683878381E0D0
:1012BC0090E02AC0CD91DC911197CE0102968D93CE
:1012CC009C93452BA1F099812881892F880F880B3D
:1012DC002083918382838383848385838683E6CF73
:1012EC00CD91DC911197CE0102968D939C93088140
:1012FC001981008311831282138214821582168243
:10130C001782D5CF80E090E0DF91CF911F910F91A4
:02131C00089532
:10131E00CF93DF93CDB7DEB760970FB6F894DEBFED
:10132E000FBECDBF80E1E3E0F1E0DE01119601904A
:10133E000D928A95E1F785B18F7E85B983E08A9506
:10134E00F1F700004B9905C085B1806185B989819F
:10135E008BC04D9905C085B1806185B98A8184C0E5
:10136E004C9905C085B1806185B98B817DC04A9944
:10137E0005C085B1806185B98C8176C085B18061EB
:10138E0085B985B1877F85B983E08A95F1F700002D
:10139E004B9905C085B1886085B98D8165C04D9921
:1013AE0005C085B1886085B98E815EC04C9905C037
:1013BE0085B1886085B98F8157C04A9905C085B1BE
:1013CE00886085B9888550C085B1886085B985B13A
:1013DE008E7F85B983E08A95F1F700004B9905C0A1
:1013EE0085B1816085B989853FC04D9905C085B1AC
:1013FE00816085B98A8538C04C9905C085B18160F8
:10140E0085B98B8531C04A9905C085B1816085B992
:10141E008C852AC085B1816085B98BB18F778BB9E8
:10142E0083E08A95F1F700004B9905C08BB1806877
:10143E008BB98D8519C04D9905C08BB180688BB95C
:10144E008E8512C04C9905C08BB180688BB98F8583
:10145E000BC04A9905C08BB180688BB9888904C0CE
:10146E008BB180688BB98FEF60960FB6F894DEBFA4
:0A147E000FBECDBFDF91CF9108959E
:10148800A2E1B0E0EAE4FAE00C94DE11FC010A8B78
:101498001B832C83732E642E552E462E7D83CC867B
:1014A800D886BF82AE82868197819B878A87D5013D
:1014B8004D915C91228133818085918501971C0132
:1014C80037FF02C021E030E0EA85FB85E80FF91F0D
:1014D80010824701E1E0F0E0FA83E983C9018E193F
:1014E8009F099E878D87DA01A270BB27B88BAF87CB
:1014F800B885BB0FBB0BB98B1214130474F0A98108
:10150800BA81AB2B09F05CC0AE81BF818D919C91F3
:1015180011978F7E8D939C9353C02A893B814C8170
:10152800572D662D752D842D9D81A0E00E941513E1
:10153800B1F1E1E02E1A3108FC85F987AF2EB884A5
:10154800C988DC2CEC2CFC2C0C2D1C2D2A893B8109
:101558004C81572D662D752D842D9D810E94ED128D
:10156800C90129839A83EA85FB85E20DF31D805D15
:10157800808381E0881A91082A893B814C81572D04
:10158800662D752D842D9D810E94EF122A8B3B8339
:101598004C83752E662E572E482E9D83ADCF8D8594
:1015A8009E85880D991D181619061CF21814190421
:1015B8000CF0A5CFEF85F889EF2B09F0BACF9FCFB4
:0A15C800C1016296E2E10C94FA11F1
:1015D20065B1982F9074492F50E0559547955595D0
:1015E20047955595479555954795982F9078292F6A
:1015F20030E0022E232F000C221F330B000C221F7F
:10160200331F962F997F492B242B25B968B1982F28
:101612009071492F50E055954795559547955595A9
:101622004795982F9072292F30E03595279535955B
:10163200279535952795962F997F492B242B28B9E5
:101642009BB192609BB99BB191609BB925ED2A95A4
:10165200F1F700009BB19E7F9BB99BB19D7F9BB927
:1016620095ED9A95F1F7000065B120E1829FC001E6
:101672001124AC01407455275595479555954795CA
:1016820055954795559547959C0120783327022E0D
:10169200232F000C221F330B000C221F331F362F67
:1016A200397F432B242B25B948B19C012071332764
:1016B20035952795359527953595279580729927E4
:1016C200959587959595879595958795942F997F6B
:1016D200292B822B88B98BB182608BB98BB1816047
:1016E2008BB985ED8A95F1F700008BB18E7F8BB9AE
:1016F2008BB18D7F8BB995ED9A95F1F70000089526
:1017020065B1982F9074492F50E05595479555959E
:1017120047955595479555954795982F9078292F38
:1017220030E0022E232F000C221F330B000C221F4D
:10173200331F962F997F492B242B25B968B1982FF7
:101742009071492F50E05595479555954795559578
:101752004795982F9072292F30E03595279535952A
:10176200279535952795962F997F492B242B28B9B4
:101772009BB191609BB9EFE9FFE03197F1F700C0AF
:1017820000009BB19E7F9BB9EFE9FFE03197F1F733
:1017920000C0000065B1F0E18F9FC0011124AC01CF
:1017A20040745527559547955595479555954795B5
:1017B200559547959C0120783327022E232F000C44
:1017C200221F330B000C221F331F362F397F432B6E
:1017D200242B25B948B19C012071332735952795D3
:1017E20035952795359527958072992795958795F3
:1017F2009595879595958795942F997F292B822B7F
:1018020088B98BB181608BB98FE99FE00197F1F7BD
:1018120000C000008BB18E7F8BB9EFE9FFE03197FA
:08182200F1F700C00000089579
:10182A00809100018230D9F128F4882351F0813067
:10183A0091F085C0833009F455C0843009F476C02C
:10184A007EC026E030E040E351E060E083E191E0D1
:10185A000E94151274C080911D0190911E0164E6C8
:10186A0070E00E9489129F938F937F936F9386E310
:10187A0091E0A0E0AF939F938F931F9286E08F939E
:10188A0083E191E09F938F930E9474128DB79EB764
:10189A000B960FB6F8949EBF0FBE8DBF50C08091B5
:1018AA001D0190911E0164E670E00E9489129F93C7
:1018BA008F937F936F9386E391E0A0E0AF939F931A
:1018CA008F931F9286E08F9383E191E09F938F938A
:1018DA000E9474128DB79EB70B960FB6F8949EBFEE
:1018EA000FBE8DBF80911D0190911E0164E670E0CC
:1018FA000E9489129F938F937F936F9386E391E05F
:10190A00A0E0AF939F938F931F9286E08F9383E11A
:10191A0091E09F938F930E9474128DB79EB70B9696
:10192A000FB6F8949EBF0FBE8DBF09C026E030E007
:10193A0040E351E060E083E191E00E94151283E107
:04194A0091E008958B
:10194E002F923F924F926F927F928F92AF92BF9251
:10195E00CF92DF92EF92FF920F931F93CF93DF936D
:10196E00CDB7DEB766970FB6F894DEBF0FBECDBF0C
:10197E005C013A01862E6901C701817099279C8B03
:10198E008B8BE0FC1DC020173107D4F47801EC18C6
:10199E00FD08FE8AED8AA70191E1E916F10410F027
:1019AE0040E150E060E270E0CE0101969A8B898BA7
:1019BE000E942C1389899A891C0120E8422E0BC0A3
:1019CE009601682DA301C5010E94F910C016D1061B
:1019DE00ECF2C60125C090E1E916F10458F020E1C1
:1019EE0030E0642DA101C5010E94F91080E1E81AD2
:1019FE00F108F1CF2D893E892F70332789899A8975
:101A0E00AC0160E8C5010E94F9108B899C89892B75
:101A1E0031F49601682DA301C5010E94F910C80189
:101A2E0066960FB6F894DEBF0FBECDBFDF91CF9195
:101A3E001F910F91FF90EF90DF90CF90BF90AF90DE
:0E1A4E008F907F906F904F903F902F90089553
:101A5C00CF93DF932FEF86E791E0215080409040A9
:101A6C00E1F700C0000085B1897F85B988B1897F15
:101A7C0088B91BB884B1866084B987B1866087B990
:101A8C008AB183608AB985B1897F85B988B186604E
:101A9C0088B98BB181608BB98FE99FE00197F1F721
:101AAC0000C000008BB18E7F8BB98FE99FE001974E
:101ABC00F1F700C0000085B1897F85B988B18660D7
:101ACC0088B98BB181608BB98FE99FE00197F1F7F1
:101ADC0000C000008BB18E7F8BB98FE99FE001971E
:101AEC00F1F700C0000085B1897F85B988B1897F85
:101AFC00846088B98BB181608BB98FE99FE00197C5
:101B0C00F1F700C000008BB18E7F8BB98FE99FE09D
:101B1C000197F1F700C0000088E20E94810B8CE075
:101B2C000E94810B40E0C0E00EC0D1E0D40F8C2F9E
:101B3C0090E0A0E0BC018A2F66527F4F8F4F0E942D
:101B4C00C410C85F4D2FC03480F3DF91CF9108953E
:101B5C00CF93DF93DC01F90164387105D9F164F49A
:101B6C006138710521F16238710509F440C06038A3
:101B7C00710509F054C02EC060397105C1F184F4AF
:101B8C006838710509F04BC0C081D181CE01029635
:101B9C0091838083E881F981ED93FC9340833CC071
:101BAC00603A7105B9F0603C7105A1F038C0C08194
:101BBC00D181CE01029691838083E881F981ED93E6
:101BCC00FC93052E000C660B770B408351836283CC
:101BDC00738322C0C081D181CE0102969183808310
:101BEC00E881F981ED93FC935183408315C0C0814A
:101BFC00D181CE01029691838083E881F981ED93A6
:101C0C00FC9351834083852F880F880B82838383B9
:101C1C00848385838683878381E090E002C080E0A3
:081C2C0090E0DF91CF910895D3
:101C3400A2E0B0E0E0E2FEE00C94DE111C014B01F6
:101C4400FA01DB0112962D913C91139714964D9055
:101C54005C9015978D919C9111979A838983169620
:101C64006D907C90179737FD03C08D7F9A8389838D
:101C7400008111812281338144815581668177817C
:101C8400FE0131965F0188E0C82ED12C7201C40197
:101C94000E94440A298124FF06C00197F301E80F3A
:101CA400F91F20E32083298123FF06C00197F30154
:101CB400E80FF91F20E22083E980FA80D401189606
:101CC4002D913C91199721503109281B390B860D10
:101CD400971DAC0160E88201C1010E94A70C9C0120
:101CE400F1018081918190FF08C0D40112968D91F9
:101CF4009C911397821793070CF4C9012296E2E191
:041D04000C94FA1130
:101D08002F923F924F926F927F928F92AF92BF9293
:101D1800CF92DF92EF92FF920F931F93CF93DF93AF
:101D2800CDB7DEB727970FB6F894DEBF0FBECDBF8D
:101D38006C017B013901842E980180E4282E81E012
:101D4800382E80E0482E87E0F101AE014F5F5F4FEB
:101D5800DA01742D0E940813F70102811381A4800F
:101D6800B580E080F18061147104810419F43A01AE
:101D7800F0E88F2E2115310529F4882DB3010E9432
:101D88005E129C0117FD04C00217130708F498019E
:101D98008501682DA301C6010E94A70C27960FB6DE
:101DA800F894DEBF0FBECDBFDF91CF911F910F9189
:101DB800FF90EF90DF90CF90BF90AF908F907F9083
:0A1DC8006F904F903F902F90089508
:101DD200A2E0B0E0EFEEFEE00C94DE113C014B011C
:101DE200FA01DB0112962D913C91139714964D90B6
:101DF2005C9015978D919C9111979A838983169681
:101E02002D903C90179737FD03C08D7F9A8389836D
:101E120000811181228133814481558166817781DC
:101E2200FE0131965F018AE0C82ED12C7201C401F5
:101E32000E94440AE980FA80D40118962D913C91BF
:101E4200199721503109281B390B820D931DAC01C2
:101E520060E88201C3010E94A70C9C01F30180810A
:101E6200918190FF08C0D40112968D919C91139795
:101E7200821793070CF4C9012296E2E10C94FA113D
:101E82006F927F928F92EF92FF920F931F93CF9355
:101E9200DF93CDB7DEB761970FB6F894DEBF0FBE02
:101EA200CDBFFE01319651E1DF011D925A95E9F74E
:101EB200A2E0B1E0BA83A9839C838B8377FF09C038
:101EC2008FE490E090930201809301018FEF9FEFE6
:101ED20019C03901842E7C01615071097F836E83A0
:101EE2009801682DA301CF010E94461248855985A9
:101EF2002E813F814217530708F49A01F701E20F3E
:101F0200F31F108261960FB6F894DEBF0FBECDBFED
:101F1200DF91CF911F910F91FF90EF908F907F9063
:041F22006F9008951F
:101F260088249924F401E401B0E49F93AA279A1522
:101F36008B049C04ED05FE05CF05D007A10798F498
:101F4600AD2FDC2FCF2FFE2FE92D982C892E982F21
:101F5600872F762F652F542F432F322F2227B850E5
:101F660031F7BF9127C01B2EBF91BB27220F331F0E
:101F7600441F551F661F771F881F991F881C991CB1
:101F8600EE1FFF1FCC1FDD1FAA1FBB1F8A149B0459
:101F9600EC05FD05CE05DF05A007B10748F08A1858
:101FA6009B08EC09FD09CE09DF09A00BB10B2160E6
:101FB6001A94E1F62EF49401AF01BE01CD01000C96
:021FC60008957C
:101FC800CF92DF92EF92DC0190E0292F30E0220FD0
:101FD800331F6901032E000CEE086E2DA601465E24
:101FE8005E4F6F4F6A01E62EFA018491E7FC80810B
:101FF80081110DC02F5F3F4F032E000C440B265E4E
:102008003E4F4F4FF901849147FD808124C0CD9008
:10201800DD90EC901297F6014491E7FC408184131F
:1020280015C02F5F3F4F032E000C440B265E3E4F1A
:102038004F4FF901949147FD90815FEFC51AD50A7A
:10204800E50ACD92DD92EC92129701C09F5F9B301A
:0E20580008F4BBCF892FEF90DF90CF90089552
:102066000F931F93CF93DF93DB012D913C91119733
:1020760030FF25C017964D915C91189715962D91B6
:102086003C9116974217530778F41296ED91FC91FE
:102096001397808312962D913C9113972F5F3F4F94
:1020A60013963C932E93129717962D913C91189761
:1020B6002F5F3F4F18963C932E93179715C01D968A
:1020C600ED91FC911E97309719F48FEF9FEF0CC09E
:1020D6008B01EC010995892BC1F7F8018781908561
:1020E600019690878783CE01DF91CF911F910F9143
:0220F60008954B
:1020F800CF939B01482FF901849147FD808180325D
:10210800C9F1682F082E000C770B695071096530EA
:10211800710580F18B3249F5A0E0B0E02F5F3F4FA9
:102128004F4F02C0A0E0B0E080E090E0CAE0F901C3
:10213800649147FD6081062E000C770B605371098E
:102148006A30710560F4C89FF001C99FF00D112431
:102158002F5F3F4F4F4FCF01861B970BE8CFAB2B1D
:1021680069F491958195910909C08D32D9F6A1E05C
:10217800B0E0D4CF2F5F3F4F4F4FBDCFCF910895E1
:10218800CF92DF92EF920F931F93CF93DF936B0160
:10219800E82E842F90E0880F991F880F991F880FC9
:1021A800991F806400E010E015C04E2D9601200FA5
:1021B800311F411D17FD4A95642FA901FA01C491E9
:1021C800D1E0D80F0E94810B8C2F0E94E90A0F5F83
:1021D8001F4F8D2F0830110540F3DF91CF911F91CC
:0A21E8000F91EF90DF90CF90089563
:1021F2006F927F928F92CF92DF92EF920F931F9303
:10220200CF93DF938C016A01E62EE9013A01862E13
:10221200620E731E811C37FD8A94C614D704E8042B
:1022220079F0F6018491E7FC8081B801082E000C58
:10223200990B0E9433108FEFC81AD80AE80AEDCF23
:10224200CE01DF91CF911F910F91EF90DF90CF9050
:082252008F907F906F900895BA
:10225A00CF93DF930F92CDB7DEB778940E942E0DFD
:10226A000E94FB120E9458110E94DF1261E081E075
:10227A000E94C1120E94461380912E018130E1F71B
:10228A0010922E01CE0101960E94801169810E944E
:10229A00B80461E081E00E94C1120E94150C65E059
:0622AA000E942E12E9CF94
:1022B00084B1806284B987B1806387B985B18F7D2D
:1022C00085B988B18F7C88B987B1866087B984B1B8
:1022D000866084B98AB183608AB984B1896184B91E
:1022E0008AB180688AB985B1896185B98BB1806806
:1022F0008BB98AB1837C8AB98BB18C638BB9089511
:10230000CF93DF93EC010E948F098F3F31F48093CC
:102310002D0180932C0180E010C090912D01891334
:1023200009C090912C01891729F0888380932C0192
:1023300081E003C080932D0180E0DF91CF9108956B
:10234000FA0160387105CCF0623871051CF0633811
:10235000710599F4A081B1819D012C5F3F4F3183BC
:1023600020834D915D916D917C91FC01408351835F
:102370006283738381E090E0089580E090E00895A7
:1023800097FB10F8169400080F93083098F0085047
:10239000232F342F452F562F672F782F892F902DDD
:1023A000F4CF0594979587957795679557954795B9
:0C23B000379527950A95AAF70F9108951C
:1023BC002F923F924F925F926F927F928F929F9249
:1023CC00AF92BF92CF92DF92EF92FF920F931F9337
:1023DC00CF93DF93CDB7DEB7CA1BDB0B0FB6F894E8
:0823EC00DEBF0FBECDBF099456
:1023F4002A88398848885F846E847D848C849B8491
:10240400AA84B984C884DF80EE80FD800C811B819E
:10241400AA81B981CE0FD11D0FB6F894DEBF0FBECD
:06242400CDBFED0108959B
:10242A00CF92DF92EF926A01E62EDC01280F391F64
:10243A00A217B30751F0F6014491E7FC40814D938E
:10244A004FEFC41AD40AE40AF3CFEF90DF90CF908B
:02245A000895E3
:10245C000F931F93CF93DF93009769F0D62F8C01C6
:10246C00C0E007C0F801EC0FF11D80810E94E90A61
:10247C00CF5FCD17B8F3DF91CF911F910F910895D6
:10248C00A2E0B0E0ECE4F2E10C94EC118C013A83A4
:10249C0029839E012F5F3F4F0E94A700F8012081E6
:1024AC0024FF02C08FEF9FEF2296E4E00C940812F9
:1024BC00CF92DF92EF926B01E82EA82FCB01FC019B
:1024CC002491A7FD2081222319F00196A11DF7CF9D
:0C24DC008C199D09EF90DF90CF900895BF
:1024E800A0E0B0E0EAE7F2E10C94EC118E01025FA3
:1024F8001F4F2B853C854D8569857A858F81988509
:0A2508000E94410FE4E00C94081259
:1025120097FB072E16F4009407D077FD09D00E948E
:102522009D1207FC05D03EF4909581959F4F08952A
:08253200709561957F4F08953B
:10253A00AA1BBB1B51E107C0AA1FBB1FA617B707DF
:10254A0010F0A61BB70B881F991F5A95A9F78095FB
:08255A009095BC01CD0108952C
:102562006095709580959095309540955095219500
:102572003F4F4F4F5F4F6F4F7F4F8F4F9F4F08958A
:10258200623031F0633031F0613029F4805C03C095
:0E2592008C5E01C08C5A80680E94810B0895F7
:1025A0001F920F920FB60F9211248F9381E08093A8
:0E25B0002E018F910F900FBE0F901F90189567
:1025BE0084B5826084BD8CE987BDEEE6F0E0808153
:0C25CE008260808385B5856085BD08951E
:1025DA00689401C0E8948F929F92CF93DF930E94F0
:0C25EA00930FDF91CF919F908F90089588
:1025F6001092000110921C0110921B0110921E01F4
:0A26060010921D0110922B0108959F
:10261000992777FD05C005900D920197E1F7089580
:0A26200001900D920197E1F7089573
:10262A000024A7FD00942A173005400550056005CF
:08263A0070058005900508956C
:10264200EC010E9452130E945113CE010E945313B7
:06265200CE010E944F13AF
:10265800FC01480F591FE417F50711F06193FBCFF0
:022668000895D3
:10266A009C01215631092A31310510F48F759927B9
:02267A000895C1
:10267C009C01215431092A31310508F480620895F6
:08268C0081E00E94810B08951A
:0626940080E090E00895D3
:04269A000C9400009C
:04269E000E946B002B
:0226A200089599
:0226A400089597
:0226A600089595
:1026A8003132334134353642373839432A302344BE
:00000001FF
