:100000000C9434000C946B000C946B000C946B00FB
:100010000C946B000C946B000C946B000C946B00B4
:100020000C946B000C946B000C946B000C946B00A4
:100030000C946B000C946B000C946B000C946B0094
:100040000C946B000C946B000C946B000C946B0084
:100050000C946B000C946B000C946B000C946B0074
:100060000C946B000C946B0011241FBECFEFD8E0F2
:10007000DEBFCDBF0E9468000C943E00F894FFCF15
:1000800084B1806284B987B1806387B985B18F7D7F
:1000900085B988B18F7C88B987B1866087B984B10A
:1000A000866084B98AB183608AB984B1896184B970
:1000B0008AB180688AB985B1896185B98BB1806858
:1000C0008BB98AB1837C8AB98BB18C638BB9089563
:0600D0000E944000FFCF7A
:0400D6000C94000086
:00000001FF
