:100000000C943A000C9461030C9461030C9461030A
:100010000C9461030C9461030C9461030C946103D0
:100020000C9461030C9461030C9461030C946103C0
:100030000C9461030C9461030C942C030C946103E5
:100040000C9461030C9461030C9461030C946103A0
:100050000C9461030C9461030C9461030C94610390
:100060000C9461030C946103010001100006D0019F
:100070001001118011241FBECFEFD8E0DEBFCDBF2D
:10008000E8E6F0E040E017C0B591A59135912591E3
:10009000059107FD0CC095918591EF01F92FE82F8F
:1000A00005900D92A217B307D9F7FE0104C01D9267
:1000B000A217B307E1F7E437F40731F70E94AB0268
:0800C0000C945603F894FFCFE5
:1000C800001F000000001F00001F101010101F006C
:1000D800001F181818181F00001F1C1C1C1C1F00CC
:1000E800001F1E1E1E1E1F00001F1F1F1F1F1F0098
:1000F80003070F1F0F070300181C1E1F1E1C1800E4
:05010800486F6C61006E
:10010E0065B1982F9074492F50E0559547955595A8
:10011E0047955595479555954795982F9078292F42
:10012E0030E0022E232F000C221F330B000C221F57
:10013E00331F962F997F492B242B25B968B1982F01
:10014E009071492F50E05595479555954795559582
:10015E004795982F9072292F30E035952795359534
:10016E00279535952795962F997F492B242B28B9BE
:10017E009BB192609BB99BB191609BB925ED2A957D
:10018E00F1F700009BB19E7F9BB99BB19D7F9BB900
:10019E0095ED9A95F1F7000065B120E1829FC001BF
:1001AE001124AC01407455275595479555954795A3
:1001BE0055954795559547959C0120783327022EE6
:1001CE00232F000C221F330B000C221F331F362F40
:1001DE00397F432B242B25B948B19C01207133273D
:1001EE0035952795359527953595279580729927BD
:1001FE00959587959595879595958795942F997F44
:10020E00292B822B88B98BB182608BB98BB181601F
:10021E008BB985ED8A95F1F700008BB18E7F8BB986
:10022E008BB18D7F8BB995ED9A95F1F700000895FE
:10023E0065B1982F9074492F50E055954795559577
:10024E0047955595479555954795982F9078292F11
:10025E0030E0022E232F000C221F330B000C221F26
:10026E00331F962F997F492B242B25B968B1982FD0
:10027E009071492F50E05595479555954795559551
:10028E004795982F9072292F30E035952795359503
:10029E00279535952795962F997F492B242B28B98D
:1002AE009BB191609BB9EFE9FFE03197F1F700C088
:1002BE0000009BB19E7F9BB9EFE9FFE03197F1F70C
:1002CE0000C0000065B1F0E18F9FC0011124AC01A8
:1002DE00407455275595479555954795559547958E
:1002EE00559547959C0120783327022E232F000C1D
:1002FE00221F330B000C221F331F362F397F432B47
:10030E00242B25B948B19C012071332735952795AB
:10031E0035952795359527958072992795958795CB
:10032E009595879595958795942F997F292B822B57
:10033E0088B98BB181608BB98FE99FE00197F1F796
:10034E0000C000008BB18E7F8BB9EFE9FFE03197D3
:08035E00F1F700C00000089552
:10036600CF93DF932FEF86E791E0215080409040B6
:10037600E1F700C0000085B1897F85B988B1897F22
:1003860088B91BB884B1866084B987B1866087B99D
:100396008AB183608AB985B1897F85B988B186605B
:1003A60088B98BB181608BB98FE99FE00197F1F72E
:1003B60000C000008BB18E7F8BB98FE99FE001975B
:1003C600F1F700C0000085B1897F85B988B18660E4
:1003D60088B98BB181608BB98FE99FE00197F1F7FE
:1003E60000C000008BB18E7F8BB98FE99FE001972B
:1003F600F1F700C0000085B1897F85B988B1897F92
:10040600846088B98BB181608BB98FE99FE00197D1
:10041600F1F700C000008BB18E7F8BB98FE99FE0AA
:100426000197F1F700C0000088E20E941F018CE0EE
:100436000E941F0140E0C0E00EC0D1E0D40F8C2F17
:1004460090E0A0E0BC018A2F68537F4F8F4F0E9437
:100456007602C85F4D2FC03480F3DF91CF910895A7
:10046600CF93DF93CDB7DEB760970FB6F894DEBFB4
:100476000FBECDBF80E1E0E0F1E0DE011196019014
:100486000D928A95E1F785B18F7E85B985E38A95C8
:10049600F1F700004B9905C085B1806185B9898166
:1004A60019C04D9905C085B1806185B98A8112C090
:1004B6004C9905C085B1806185B98B810BC04A997D
:1004C60005C085B1806185B98C8104C085B1806124
:1004D60085B980E060960FB6F894DEBF0FBECDBF3B
:0604E600DF91CF910895A3
:1004EC00CF92DF92EF920F931F93CF93DF936B0119
:1004FC00E82E842F90E0880F991F880F991F880F82
:10050C00991F806400E010E015C04E2D9601200F5D
:10051C00311F411D17FD4A95642FA901FA01C491A1
:10052C00D1E0D80F0E941F018C2F0E9487000F5F13
:10053C001F4F8D2F0830110540F3DF91CF911F9184
:0A054C000F91EF90DF90CF9008951B
:10055600CF93DF9300D000D00F92CDB7DEB778945B
:100566000E94DD020E943B0328E031E040E085E086
:10057600F901DE011196742F0E9449030E94B3010E
:1005860061E081E00E941D0364E0CE0101960E94B5
:10059600050361E082E00E941D0380911001813015
:1005A600E1F7109210010E9433028823B1F30E94F2
:0405B6008700F3CFF8
:1005BA0084B1806284B987B1806387B985B18F7D40
:1005CA0085B988B18F7C88B987B1866087B984B1CB
:1005DA00866084B98AB183608AB984B1896184B931
:1005EA008AB180688AB985B1896185B98BB1806819
:1005FA008BB98AB1837C8AB98BB18C638BB9089524
:10060A000F931F93CF93DF93009769F0D62F8C0136
:10061A00C0E007C0F801EC0FF11D80810E9487003D
:10062A00CF5FCD17B8F3DF91CF911F910F91089546
:10063A00623031F0633031F0613029F4805C03C0FC
:0E064A008C5E01C08C5A80680E941F010895CA
:100658001F920F920FB60F9211248F9381E080930F
:0E06680010018F910F900FBE0F901F901895EC
:1006760084B5826084BD8CE987BDEEE6F0E08081BA
:0C0686008260808385B5856085BD089585
:10069200992777FD05C005900D920197E1F708951E
:0A06A20001900D920197E1F7089511
:1006AC00EC010E9466030E946503CE010E94670361
:0606BC00CE010E94630361
:0406C2000C94000094
:0406C6000E9462002C
:0206CA00089591
:0206CC0008958F
:0206CE0008958D
:1006D0003132334134353642373839432A302344B6
:00000001FF
