:100000000C9443000C94CC0A0C94CC0A0C94CC0AAB
:100010000C94CC0A0C94CC0A0C94CC0A0C94CC0A08
:100020000C94CC0A0C94CC0A0C94CC0A0C94CC0AF8
:100030000C94CC0A0C94CC0A0C948D0A0C94CC0A27
:100040000C94CC0A0C94CC0A0C94CC0A0C94CC0AD8
:100050000C94CC0A0C94CC0A0C94CC0A0C94CC0AC8
:100060000C94CC0A0C94CC0A01000101800101011E
:100070001100159C0111012C80012C012D0015ACE3
:10008000012D012F800011241FBECFEFD8E0DEBF6D
:10009000CDBFE8E6F0E040E017C0B591A5913591FD
:1000A0002591059107FD0CC095918591EF01F92FE0
:1000B000E82F05900D92A217B307D9F7FE0104C0EF
:1000C0001D92A217B307E1F7E538F40731F70E9454
:0A00D00065090C946B00F894FFCF53
:1000DA00001F000000001F00001F101010101F005A
:1000EA00001F181818181F00001F1C1C1C1C1F00BA
:1000FA00001F1E1E1E1E1F00001F1F1F1F1F1F0086
:10010A0003070F1F0F070300181C1E1F1E1C1800D1
:10011A0030303A303000253032643A2530326400CB
:0C012A0046494E2020002020202020000C
:10013600882309F4BEC081E090E090932801809363
:100146002701613479F038F4633209F4B2C06A32B7
:1001560009F4AFC073C06334D9F1F8F0643409F41C
:1001660052C06CC081E090E09093260180932501F7
:100176001092240110922301109222011092210163
:100186001092200110921F0110922A01109229014B
:1001960010921801109217018CC01092260110922D
:1001A600250181E090E09093240180932301109231
:1001B6002201109221011092200110921F019093AA
:1001C6002A0180932901109218011092170171C01B
:1001D60010922601109225011092240110922301FB
:1001E600109222011092210181E090E0909320016B
:1001F60080931F0110922A01109229011092180172
:100206001092170156C0109226011092250181E026
:1002160090E0909324018093230110922201109282
:1002260021011092200110921F0110922A011092B2
:10023600290110921801109217013BC081E090E04D
:10024600909318018093170180910001823009F480
:100256000AC280ED860F8A30C0F480911D0190910C
:100266001E019C01220F331F880F991F880F991FAB
:10027600880F991F820F931F70E060537109680FF2
:10028600791F70931E0160931D0110922601109232
:10029600250110922401109223011092220110923E
:1002A60021011092200110921F0110922A01109232
:1002B600290180910001823009F4C9C030F48823F5
:1002C60059F0813009F440C0B6C1833009F43DC10C
:1002D600843009F488C1AFC110921A011092190135
:1002E6008091250190912601892B21F082E080934F
:1002F6000001A1C180911F0190912001019781F415
:100306008EE190E090931E0180931D0182E0809320
:10031600000185B1806285B988B1806188B98BC1D9
:100326008091170190911801019709F084C181E02D
:100336008093000180911B0190911C01019690937E
:100346001C0180931B0177C18091270190912801A0
:10035600019709F070C180912501909126010197BE
:1003660051F482E08093000185B1806285B988B13D
:10037600806188B960C18091290190912A01019715
:1003860059F410921E0110921D0110921C01109238
:100396001B01109200014FC1809117019091180125
:1003A600019729F580911D0190911E01892B31F449
:1003B60080911B0190911C01892B49F080911B01B2
:1003C60090911C01019690931C0180931B018091D2
:1003D6001B0190911C0105970CF42DC110921C0174
:1003E60010921B0110921E0110921D0124C18091D2
:1003F6001F0190912001019709F01DC180911D01F7
:1004060090911E0164E670E00E94330AAB019C01E4
:10041600225E3F4F2C33310524F04F5F5F4F2C5344
:10042600310964E6649FC001659F900D1124820F17
:10043600931F90931E0180931D0182E0809300011B
:1004460085B1806285B988B1806188B9F4C0809130
:10045600230190912401892B39F083E080930001D8
:1004660085B18F7D85B9E7C08091210190912201E8
:10047600892B21F084E080930001DDC080911D016D
:1004860090911E0164E670E00E94330A6C33710598
:1004960014F06BE370E08C33910514F08BE390E07D
:1004A60020911F0130912001232B89F09C01225EAF
:1004B6003F4F2C3331053CF06B33710531F06F5FE4
:1004C6007F4F4E9704C0C90102C08BE390E044E61B
:1004D600469F9001479F300D1124280F391F3093F6
:1004E6001E0120931D0190912B019F5F90932B017C
:1004F600943608F4A0C010922B01C90164E670E09E
:100506000E94330AAB019C01181619061CF42150EF
:10051600310908C0161617062CF4AB0141505109D3
:100526002BE330E064E6649FC001659F900D1124C3
:10053600820F931F90931E0180931D01892B09F052
:100546007AC084E08093000176C080912501909165
:100556002601892B31F082E08093000185B180620B
:1005660085B98091170190911801892B19F081E0C6
:10057600809300018091290190912A01892B61F0D5
:1005860010921E0110921D011092000185B18F7DFF
:1005960085B988B18F7E88B980911F01909120011D
:1005A600892B09F448C080911D0190911E0164E6D3
:1005B60070E00E94330AAB019C01225E3F4F2C3350
:1005C600310524F04F5F5F4F2C53310964E6649F79
:1005D600C001659F900D1124820F931F90931E01F9
:1005E60080931D0128C085B18F7D85B988B18F7E26
:1005F60088B98091270190912801892B31F4809147
:10060600190190911A01059711F410920001809139
:100616002B01843659F48091190190911A010196A3
:1006260090931A018093190110922B0180912B014E
:100636008F5F80932B011092280110922701109250
:10064600200110921F0110921801109217011092AA
:100656002601109225011092240110922301109276
:080666002A01109229010895F8
:10066E002F923F924F926F927F928F929F92AF9264
:10067E00BF92CF92DF92EF92FF920F931F93CF9381
:10068E00DF93CDB7DEB762970FB6F894DEBF0FBE1D
:10069E00CDBF6C013A01862E7901FC0110861782BE
:1006AE00848181FFE7C19E012F5F3F4F3D872C87DD
:1006BE00C901A0E8888B998BAA8B9FE3992EF30131
:1006CE00849187FC8081882309F4D0C1482D930141
:1006DE002F5F3F4F4F4F853219F03901842E0AC0DC
:1006EE00F901849147FD808192E0690E711C811C95
:1006FE00853229F4B60190E00E94C308E0CFB12CF8
:10070E0000E010E01032A0F48B3269F030F4803249
:10071E0059F0833269F410612CC08D3239F0803378
:10072E0039F4116026C01260146023C0186021C015
:10073E0017FD29C090ED980F9A3078F416FF06C079
:10074E00AAE0BA9E900D1124B92E13C0EAE00E9FB6
:10075E00900D1124092F10620CC08E3221F416FD5B
:10076E0085C1106406C08C3611F4106802C088363C
:10077E0051F4F301849187FC8081FFEF6F1A7F0A99
:10078E008F0A8111BFCF982F9F7D9554933028F4F7
:10079E0024E0E20EF11C99820FC0833631F08337CC
:1007AE0091F0833509F063C027C0F70180818983FA
:1007BE0097012E5F3F4F7901288839884A88AA24ED
:1007CE00A394B12C17C0A7014D5F5F4F5F874E8773
:1007DE00F70120803180428016FF03C04B2D50E080
:1007EE0002C04FEF5FEF842DB1010E94CC095C0176
:1007FE00EE84FF841F7718C097012D5F3F4F3F8710
:10080E002E87F70120803180428016FF03C04B2DCA
:10081E0050E002C04FEF5FEF842DB1010E94CC0972
:10082E005C011068EE84FF8413FD1DC0802F90E0E4
:10083E00A816B906C0F4B60180E290E00E94C30883
:10084E000150F4CFF101849147FC8081FFEF2F1A04
:10085E003F0A4F0AB60190E00E94C30801110150F1
:10086E0021E0A21AB108A114B10461F7F5C08436D3
:10087E0011F0893671F5F70117FF08C0608171819B
:10088E008281938197012C5F3F4F09C060817181F6
:10089E00072E000C880B990B97012E5F3F4F7901A5
:1008AE001F76312E97FF0AC09095809570956195B1
:1008BE007F4F8F4F9F4F312F3068332E2AE030E01D
:1008CE00AE014F5F5F4F0E946508482E4C85441A5B
:1008DE004AC0853729F41F7EA12E2AE030E025C0BC
:1008EE00512F597FA52E8F36C1F018F4883579F027
:1008FE00BDC0803719F0883721F0B8C0852F8061D0
:10090E00A82EA4FE0DC09A2D9460A92E09C014FF26
:10091E000AC0A52FA660AA2E06C028E030E005C0AA
:10092E0020E130E002C020E132E0F701A7FE08C06E
:10093E006081718182819381A7014C5F5F4F07C0F7
:10094E006081718180E090E0A7014E5F5F4F7A0178
:10095E00AE014F5F5F4F0E946508482E5C85451AB9
:10096E008A2D8F77382E36FE0DC0932D9E7FA92EA1
:10097E004B1458F434FE0BC032FC09C0A32DAE7ECE
:10098E00AA2E05C0142DA32C03C0142D01C01B2D9F
:10099E00A4FE0EC0FE01E40DF11D8081803321F412
:1009AE00EA2DE97EAE2E08C0A2FE05C01E5F04C071
:1009BE008A2D867809F01F5FA3FC11C0A0FE06C029
:1009CE00101788F4040DB02EB11A0EC0101760F473
:1009DE00B60180E290E00E94C3081F5FF7CF1017A8
:1009EE0018F4011B02C0B42C00E0A4FE10C0B60126
:1009FE0080E390E00E94C308A2FE17C0A1FC03C0D2
:100A0E0088E790E002C088E590E0B6010CC08A2D20
:100A1E00867859F0A1FE02C08BE201C080E2A7FCED
:100A2E008DE2B60190E00E94C3084B1438F4B60173
:100A3E0080E390E00E94C308BA94F7CF4A94E1E0B5
:100A4E00F0E0EC0FFD1FE40DF11D8081B60190E08A
:100A5E000E94C3084110F2CF002309F430CEB60134
:100A6E0080E290E00E94C3080150F6CFF601878124
:100A7E00908502C08FEF9FEF62960FB6F894DEBF9F
:100A8E000FBECDBFDF91CF911F910F91FF90EF90D1
:100A9E00DF90CF90BF90AF909F908F907F906F9090
:080AAE004F903F902F90089536
:100AB600CF93DF93CDB7DEB760970FB6F894DEBF5E
:100AC6000FBECDBF80E1E1E0F1E0DE0111960190BD
:100AD6000D928A95E1F785B18F7E85B983E08A9577
:100AE600F1F700004B9905C085B1806185B9898110
:100AF6008BC04D9905C085B1806185B98A8184C056
:100B06004C9905C085B1806185B98B817DC04A99B4
:100B160005C085B1806185B98C8176C085B180615B
:100B260085B985B1877F85B983E08A95F1F700009D
:100B36004B9905C085B1886085B98D8165C04D9991
:100B460005C085B1886085B98E815EC04C9905C0A7
:100B560085B1886085B98F8157C04A9905C085B12E
:100B6600886085B9888550C085B1886085B985B1AA
:100B76008E7F85B983E08A95F1F700004B9905C011
:100B860085B1816085B989853FC04D9905C085B11C
:100B9600816085B98A8538C04C9905C085B1816068
:100BA60085B98B8531C04A9905C085B1816085B903
:100BB6008C852AC085B1816085B98BB18F778BB959
:100BC60083E08A95F1F700004B9905C08BB18068E8
:100BD6008BB98D8519C04D9905C08BB180688BB9CD
:100BE6008E8512C04C9905C08BB180688BB98F85F4
:100BF6000BC04A9905C08BB180688BB9888904C03F
:100C06008BB180688BB98FEF60960FB6F894DEBF14
:0A0C16000FBECDBFDF91CF9108950E
:100C2000809100018230F1F128F4882351F0813065
:100C3000A9F09CC0833009F458C0843009F479C00D
:100C400095C026E030E04AE151E060E081E191E0CA
:100C50000E94020A88B18F7D88B988C080911D01E9
:100C600090911E0164E670E00E94330A9F938F9377
:100C70007F936F9380E291E0A0E0AF939F938F9377
:100C80001F9286E08F9381E191E09F938F930E9462
:100C900034098DB79EB70B960FB6F8949EBF0FBE62
:100CA0008DBF64C080911D0190911E0164E670E0CB
:100CB0000E94330A9F938F937F936F9380E291E01A
:100CC000A0E0AF939F938F931F9286E08F9381E173
:100CD00091E09F938F930E9434098DB79EB70B9636
:100CE0000FB6F8949EBF0FBE8DBF80911D019091ED
:100CF0001E0164E670E00E94330A9F938F937F93F6
:100D00006F9380E291E0A0E0AF939F938F931F9247
:100D100086E08F9381E191E09F938F930E94340945
:100D20008DB79EB70B960FB6F8949EBF0FBE8DBFC2
:100D30001DC080912B01823368F426E030E04AE246
:100D400051E060E081E191E00E94020A88B1806296
:100D500088B90CC026E030E040E351E060E081E17A
:100D600091E00E94020A88B18F7D88B981E191E00B
:020D70000895E4
:100D720065B1982F9074492F50E055954795559538
:100D820047955595479555954795982F9078292FD2
:100D920030E0022E232F000C221F330B000C221FE7
:100DA200331F962F997F492B242B25B968B1982F91
:100DB2009071492F50E05595479555954795559512
:100DC2004795982F9072292F30E0359527953595C4
:100DD200279535952795962F997F492B242B28B94E
:100DE2009BB192609BB99BB191609BB925ED2A950D
:100DF200F1F700009BB19E7F9BB99BB19D7F9BB990
:100E020095ED9A95F1F7000065B120E1829FC0014E
:100E12001124AC0140745527559547955595479532
:100E220055954795559547959C0120783327022E75
:100E3200232F000C221F330B000C221F331F362FCF
:100E4200397F432B242B25B948B19C0120713327CC
:100E5200359527953595279535952795807299274C
:100E6200959587959595879595958795942F997FD3
:100E7200292B822B88B98BB182608BB98BB18160AF
:100E82008BB985ED8A95F1F700008BB18E7F8BB916
:100E92008BB18D7F8BB995ED9A95F1F7000008958E
:100EA20065B1982F9074492F50E055954795559507
:100EB20047955595479555954795982F9078292FA1
:100EC20030E0022E232F000C221F330B000C221FB6
:100ED200331F962F997F492B242B25B968B1982F60
:100EE2009071492F50E055954795559547955595E1
:100EF2004795982F9072292F30E035952795359593
:100F0200279535952795962F997F492B242B28B91C
:100F12009BB191609BB9EFE9FFE03197F1F700C017
:100F220000009BB19E7F9BB9EFE9FFE03197F1F79B
:100F320000C0000065B1F0E18F9FC0011124AC0137
:100F4200407455275595479555954795559547951D
:100F5200559547959C0120783327022E232F000CAC
:100F6200221F330B000C221F331F362F397F432BD6
:100F7200242B25B948B19C0120713327359527953B
:100F8200359527953595279580729927959587955B
:100F92009595879595958795942F997F292B822BE7
:100FA20088B98BB181608BB98FE99FE00197F1F726
:100FB20000C000008BB18E7F8BB9EFE9FFE0319763
:080FC200F1F700C000000895E2
:100FCA00CF93DF932FEF86E791E021508040904046
:100FDA00E1F700C0000085B1897F85B988B1897FB2
:100FEA0088B91BB884B1866084B987B1866087B92D
:100FFA008AB183608AB985B1897F85B988B18660EB
:10100A0088B98BB181608BB98FE99FE00197F1F7BD
:10101A0000C000008BB18E7F8BB98FE99FE00197EA
:10102A00F1F700C0000085B1897F85B988B1866073
:10103A0088B98BB181608BB98FE99FE00197F1F78D
:10104A0000C000008BB18E7F8BB98FE99FE00197BA
:10105A00F1F700C0000085B1897F85B988B1897F21
:10106A00846088B98BB181608BB98FE99FE0019761
:10107A00F1F700C000008BB18E7F8BB98FE99FE03A
:10108A000197F1F700C0000088E20E9451078CE046
:10109A000E94510740E0C0E00EC0D1E0D40F8C2F6F
:1010AA0090E0A0E0BC018A2F66527F4F8F4F0E94CA
:1010BA00FF08C85F4D2FC03480F3DF91CF910895A8
:1010CA00FA01AA27283051F1203181F1E8946F936F
:1010DA006E7F6E5F7F4F8F4F9F4FAF4FB1E03ED015
:1010EA00B4E03CD0670F781F891F9A1FA11D680FB3
:1010FA00791F8A1F911DA11D6A0F711D811D911DE6
:10110A00A11D20D009F468943F912AE0269F11245A
:10111A003019305D3193DEF6CF010895462F4770BE
:10112A00405D4193B3E00FD0C9F7F6CF462F4F7019
:10113A00405D4A3318F0495D31FD4052419302D077
:10114A00A9F7EACFB4E0A69597958795779567951D
:10115A00BA95C9F700976105710508959B01AC011D
:10116A000A2E06945795479537952795BA95C9F744
:0C117A00620F731F841F951FA01D0895B5
:101186000F931F93CF93DF93FB01248121FD03C0AF
:101196008FEF9FEF2CC022FF16C047815085258117
:1011A60036814217530744F4A081B1819D012F5F18
:1011B6003F4F318320838C93278130852F5F3F4FAC
:1011C6003087278314C08B01EC01FB010184F28573
:1011D600E02D0995892BE1F6D80117968D919C9102
:1011E6001897019618969C938E931797CE01DF91C8
:0811F600CF911F910F910895A4
:1011FE00CF92DF92EF920F931F93CF93DF936B01FA
:10120E00E82E842F90E0880F991F880F991F880F62
:10121E00991F806400E010E015C04E2D9601200F3E
:10122E00311F411D17FD4A95642FA901FA01C49182
:10123E00D1E0D80F0E9451078C2F0E94B9060F5F84
:10124E001F4F8D2F0830110540F3DF91CF911F9165
:0A125E000F91EF90DF90CF900895FC
:10126800AFE0B0E0EAE3F9E00C94BE090E891F890B
:10127800888D998D26E02D831A83098397FF02C0F4
:1012880080E090E801979F838E839E01235E3F4F05
:101298004A8D5B8D6C8DCE0101960E9437034E817D
:1012A8005F8157FD0AC028853985421753070CF41A
:1012B8009A01F801E20FF31F10822F96E4E00C94D4
:0212C800F50926
:1012CA00CF93DF931F92CDB7DEB778940E94E507DC
:1012DA000E94AA0A0E94C10A0E949C0A61E081E057
:1012EA000E947E0A0E94C80A80912E018130E1F78D
:1012FA0010922E01CE0101960E94900969810E94E6
:10130A009B0061E081E00E947E0A0E94100665E06F
:06131A000E941B0AE9CF4E
:10132000CF93DF93EC010E945B058F3F31F48093F4
:101330002D0180932C0180E010C090912D01891324
:1013400009C090912C01891729F0888380932C0182
:1013500081E003C080932D0180E0DF91CF9108955B
:101360002F923F924F925F926F927F928F929F92B5
:10137000AF92BF92CF92DF92EF92FF920F931F93A3
:10138000CF93DF93CDB7DEB7CA1BDB0B0FB6F89454
:08139000DEBF0FBECDBF0994C2
:10139800CF92DF92EF926B01E82EA82FCB01411577
:1013A800510531F48C199D09EF90DF90CF90089585
:1013B800FC012491A7FD20812223A1F30196A11D00
:0613C80041505109ECCF79
:1013CE002A88398848885F846E847D848C849B84C7
:1013DE00AA84B984C884DF80EE80FD800C811B81D5
:1013EE00AA81B981CE0FD11D0FB6F894DEBF0FBE04
:0613FE00CDBFED010895D2
:10140400CF92DF92EF92DC016A01E62E280F391F9A
:10141400A217B30751F0F6014491E7FC40814D93C4
:101424004FEFC41AD40AE40AF3CFEF90DF90CF90C1
:02143400089519
:101436000F931F93CF93DF93009769F0D62F8C01FC
:10144600C0E007C0F801EC0FF11D80810E94B906CB
:10145600CF5FCD17B8F3DF91CF911F910F9108950C
:1014660097FB072E16F4009407D077FD09D00E944B
:10147600470A07FC05D03EF4909581959F4F089545
:08148600709561957F4F0895F8
:10148E00AA1BBB1B51E107C0AA1FBB1FA617B7079C
:10149E0010F0A61BB70B881F991F5A95A9F78095B8
:0814AE009095BC01CD010895E9
:1014B60084B1896184B98AB180688AB985B1896144
:1014C60085B98BB180688BB98AB1837C8AB98BB1B7
:0614D6008C638BB9089540
:1014DC0084B1806284B987B1806387B985B18F7D0F
:1014EC0085B988B18F7E88B988B18F7D88B9089508
:1014FC00623031F0633031F0613029F4805C03C02C
:0E150C008C5E01C08C5A80680E9451070895C1
:10151A001F920F920FB60F9211248F9381E080933E
:0E152A002E018F910F900FBE0F901F901895FD
:1015380084B5826084BD8CE987BDEEE6F0E08081E9
:0C1548008260808385B5856085BD0895B4
:101554001092000110921C0110921B0110921E01A6
:0A15640010921D0110922B01089552
:10156E0087B1866087B984B1866084B98AB1836099
:04157E008AB9089589
:0E1582000E946E0A0E94B70A0E945B0A08953A
:0815900081E00E94510708955B
:041598000C940000AF
:10159C003132334134353642373839432A302344DB
:0115AC00FF3F
:00000001FF
